{
  "_format": "hh-sol-artifact-1",
  "contractName": "SampleNFT",
  "sourceName": "contracts/SampleNFT.sol",
  "abi": [
    {
      "inputs": [
        {
          "internalType": "string",
          "name": "name_",
          "type": "string"
        },
        {
          "internalType": "string",
          "name": "smbl_",
          "type": "string"
        },
        {
          "internalType": "string[]",
          "name": "file_ids",
          "type": "string[]"
        },
        {
          "internalType": "address",
          "name": "minter_",
          "type": "address"
        }
      ],
      "stateMutability": "nonpayable",
      "type": "constructor"
    },
    {
      "anonymous": false,
      "inputs": [
        {
          "indexed": true,
          "internalType": "address",
          "name": "owner",
          "type": "address"
        },
        {
          "indexed": true,
          "internalType": "address",
          "name": "approved",
          "type": "address"
        },
        {
          "indexed": true,
          "internalType": "uint256",
          "name": "tokenId",
          "type": "uint256"
        }
      ],
      "name": "Approval",
      "type": "event"
    },
    {
      "anonymous": false,
      "inputs": [
        {
          "indexed": true,
          "internalType": "address",
          "name": "owner",
          "type": "address"
        },
        {
          "indexed": true,
          "internalType": "address",
          "name": "operator",
          "type": "address"
        },
        {
          "indexed": false,
          "internalType": "bool",
          "name": "approved",
          "type": "bool"
        }
      ],
      "name": "ApprovalForAll",
      "type": "event"
    },
    {
      "anonymous": false,
      "inputs": [
        {
          "indexed": false,
          "internalType": "string",
          "name": "file_id",
          "type": "string"
        },
        {
          "indexed": false,
          "internalType": "uint256",
          "name": "token_id",
          "type": "uint256"
        }
      ],
      "name": "ItemCreated",
      "type": "event"
    },
    {
      "anonymous": false,
      "inputs": [
        {
          "indexed": true,
          "internalType": "address",
          "name": "from",
          "type": "address"
        },
        {
          "indexed": true,
          "internalType": "address",
          "name": "to",
          "type": "address"
        },
        {
          "indexed": true,
          "internalType": "uint256",
          "name": "tokenId",
          "type": "uint256"
        }
      ],
      "name": "Transfer",
      "type": "event"
    },
    {
      "inputs": [
        {
          "internalType": "string",
          "name": "file_id",
          "type": "string"
        },
        {
          "internalType": "address",
          "name": "minter_",
          "type": "address"
        }
      ],
      "name": "CreateItem",
      "outputs": [
        {
          "internalType": "uint256",
          "name": "token_id",
          "type": "uint256"
        }
      ],
      "stateMutability": "nonpayable",
      "type": "function"
    },
    {
      "inputs": [
        {
          "internalType": "address",
          "name": "to",
          "type": "address"
        },
        {
          "internalType": "uint256",
          "name": "tokenId",
          "type": "uint256"
        }
      ],
      "name": "approve",
      "outputs": [],
      "stateMutability": "nonpayable",
      "type": "function"
    },
    {
      "inputs": [
        {
          "internalType": "address",
          "name": "owner",
          "type": "address"
        }
      ],
      "name": "balanceOf",
      "outputs": [
        {
          "internalType": "uint256",
          "name": "",
          "type": "uint256"
        }
      ],
      "stateMutability": "view",
      "type": "function"
    },
    {
      "inputs": [
        {
          "internalType": "uint256",
          "name": "tokenId",
          "type": "uint256"
        }
      ],
      "name": "getApproved",
      "outputs": [
        {
          "internalType": "address",
          "name": "",
          "type": "address"
        }
      ],
      "stateMutability": "view",
      "type": "function"
    },
    {
      "inputs": [
        {
          "internalType": "address",
          "name": "owner",
          "type": "address"
        },
        {
          "internalType": "address",
          "name": "operator",
          "type": "address"
        }
      ],
      "name": "isApprovedForAll",
      "outputs": [
        {
          "internalType": "bool",
          "name": "",
          "type": "bool"
        }
      ],
      "stateMutability": "view",
      "type": "function"
    },
    {
      "inputs": [],
      "name": "name",
      "outputs": [
        {
          "internalType": "string",
          "name": "",
          "type": "string"
        }
      ],
      "stateMutability": "view",
      "type": "function"
    },
    {
      "inputs": [
        {
          "internalType": "uint256",
          "name": "tokenId",
          "type": "uint256"
        }
      ],
      "name": "ownerOf",
      "outputs": [
        {
          "internalType": "address",
          "name": "",
          "type": "address"
        }
      ],
      "stateMutability": "view",
      "type": "function"
    },
    {
      "inputs": [
        {
          "internalType": "address",
          "name": "from",
          "type": "address"
        },
        {
          "internalType": "address",
          "name": "to",
          "type": "address"
        },
        {
          "internalType": "uint256",
          "name": "tokenId",
          "type": "uint256"
        }
      ],
      "name": "safeTransferFrom",
      "outputs": [],
      "stateMutability": "nonpayable",
      "type": "function"
    },
    {
      "inputs": [
        {
          "internalType": "address",
          "name": "from",
          "type": "address"
        },
        {
          "internalType": "address",
          "name": "to",
          "type": "address"
        },
        {
          "internalType": "uint256",
          "name": "tokenId",
          "type": "uint256"
        },
        {
          "internalType": "bytes",
          "name": "data",
          "type": "bytes"
        }
      ],
      "name": "safeTransferFrom",
      "outputs": [],
      "stateMutability": "nonpayable",
      "type": "function"
    },
    {
      "inputs": [
        {
          "internalType": "address",
          "name": "operator",
          "type": "address"
        },
        {
          "internalType": "bool",
          "name": "approved",
          "type": "bool"
        }
      ],
      "name": "setApprovalForAll",
      "outputs": [],
      "stateMutability": "nonpayable",
      "type": "function"
    },
    {
      "inputs": [
        {
          "internalType": "bytes4",
          "name": "interfaceId",
          "type": "bytes4"
        }
      ],
      "name": "supportsInterface",
      "outputs": [
        {
          "internalType": "bool",
          "name": "",
          "type": "bool"
        }
      ],
      "stateMutability": "view",
      "type": "function"
    },
    {
      "inputs": [],
      "name": "symbol",
      "outputs": [
        {
          "internalType": "string",
          "name": "",
          "type": "string"
        }
      ],
      "stateMutability": "view",
      "type": "function"
    },
    {
      "inputs": [
        {
          "internalType": "uint256",
          "name": "tokenId",
          "type": "uint256"
        }
      ],
      "name": "tokenURI",
      "outputs": [
        {
          "internalType": "string",
          "name": "",
          "type": "string"
        }
      ],
      "stateMutability": "view",
      "type": "function"
    },
    {
      "inputs": [
        {
          "internalType": "address",
          "name": "from",
          "type": "address"
        },
        {
          "internalType": "address",
          "name": "to",
          "type": "address"
        },
        {
          "internalType": "uint256",
          "name": "tokenId",
          "type": "uint256"
        }
      ],
      "name": "transferFrom",
      "outputs": [],
      "stateMutability": "nonpayable",
      "type": "function"
    }
  ],
  "bytecode": "0x60806040523480156200001157600080fd5b5060405162003e6f38038062003e6f833981810160405281019062000037919062000add565b8383816000908051906020019062000051929190620008a4565b5080600190805190602001906200006a929190620008a4565b50505060005b8251811015620000e457620000cd838281518110620000b8577f4e487b7100000000000000000000000000000000000000000000000000000000600052603260045260246000fd5b602002602001015183620000ef60201b60201c565b508080620000db906200104e565b91505062000070565b50505050506200125e565b60006200010860076200018660201b62000ab41760201c565b6200011f60076200019c60201b62000aca1760201c565b9050620001338282620001aa60201b60201c565b620001458184620001d060201b60201c565b7fcf9e86cbc2da311d9fea61267a2b27d6b148f3394556d956d14af0dd849d2f0383826040516200017892919062000d28565b60405180910390a192915050565b6001816000016000828254019250508190555050565b600081600001549050919050565b620001cc8282604051806020016040528060008152506200025160201b60201c565b5050565b620001e182620002bf60201b60201c565b62000223576040517f08c379a00000000000000000000000000000000000000000000000000000000081526004016200021a9062000da0565b60405180910390fd5b806006600084815260200190815260200160002090805190602001906200024c929190620008a4565b505050565b6200026383836200030860201b60201c565b6200027860008484846200054f60201b60201c565b620002ba576040517f08c379a0000000000000000000000000000000000000000000000000000000008152600401620002b19062000d5c565b60405180910390fd5b505050565b60008073ffffffffffffffffffffffffffffffffffffffff16620002e9836200070960201b60201c565b73ffffffffffffffffffffffffffffffffffffffff1614159050919050565b600073ffffffffffffffffffffffffffffffffffffffff168273ffffffffffffffffffffffffffffffffffffffff1614156200037b576040517f08c379a0000000000000000000000000000000000000000000000000000000008152600401620003729062000dc2565b60405180910390fd5b6200038c81620002bf60201b60201c565b15620003cf576040517f08c379a0000000000000000000000000000000000000000000000000000000008152600401620003c69062000d7e565b60405180910390fd5b620003e56000838360016200074660201b60201c565b620003f681620002bf60201b60201c565b1562000439576040517f08c379a0000000000000000000000000000000000000000000000000000000008152600401620004309062000d7e565b60405180910390fd5b6001600360008473ffffffffffffffffffffffffffffffffffffffff1673ffffffffffffffffffffffffffffffffffffffff16815260200190815260200160002060008282540192505081905550816002600083815260200190815260200160002060006101000a81548173ffffffffffffffffffffffffffffffffffffffff021916908373ffffffffffffffffffffffffffffffffffffffff160217905550808273ffffffffffffffffffffffffffffffffffffffff16600073ffffffffffffffffffffffffffffffffffffffff167fddf252ad1be2c89b69c2b068fc378daa952ba7f163c4a11628f55a4df523b3ef60405160405180910390a46200054b6000838360016200087360201b60201c565b5050565b60006200057d8473ffffffffffffffffffffffffffffffffffffffff166200087960201b62000ad81760201c565b15620006fc578373ffffffffffffffffffffffffffffffffffffffff1663150b7a02620005af6200089c60201b60201c565b8786866040518563ffffffff1660e01b8152600401620005d3949392919062000cd4565b602060405180830381600087803b158015620005ee57600080fd5b505af19250505080156200062257506040513d601f19601f820116820180604052508101906200061f919062000ab1565b60015b620006ab573d806000811462000655576040519150601f19603f3d011682016040523d82523d6000602084013e6200065a565b606091505b50600081511415620006a3576040517f08c379a00000000000000000000000000000000000000000000000000000000081526004016200069a9062000d5c565b60405180910390fd5b805181602001fd5b63150b7a0260e01b7bffffffffffffffffffffffffffffffffffffffffffffffffffffffff1916817bffffffffffffffffffffffffffffffffffffffffffffffffffffffff19161491505062000701565b600190505b949350505050565b60006002600083815260200190815260200160002060009054906101000a900473ffffffffffffffffffffffffffffffffffffffff169050919050565b60018111156200086d57600073ffffffffffffffffffffffffffffffffffffffff168473ffffffffffffffffffffffffffffffffffffffff1614620007de5780600360008673ffffffffffffffffffffffffffffffffffffffff1673ffffffffffffffffffffffffffffffffffffffff1681526020019081526020016000206000828254620007d6919062000f07565b925050819055505b600073ffffffffffffffffffffffffffffffffffffffff168373ffffffffffffffffffffffffffffffffffffffff16146200086c5780600360008573ffffffffffffffffffffffffffffffffffffffff1673ffffffffffffffffffffffffffffffffffffffff168152602001908152602001600020600082825462000864919062000eaa565b925050819055505b5b50505050565b50505050565b6000808273ffffffffffffffffffffffffffffffffffffffff163b119050919050565b600033905090565b828054620008b29062000fe2565b90600052602060002090601f016020900481019282620008d6576000855562000922565b82601f10620008f157805160ff191683800117855562000922565b8280016001018555821562000922579182015b828111156200092157825182559160200191906001019062000904565b5b50905062000931919062000935565b5090565b5b808211156200095057600081600090555060010162000936565b5090565b60006200096b620009658462000e0d565b62000de4565b905080838252602082019050828560208602820111156200098b57600080fd5b60005b85811015620009da57815167ffffffffffffffff811115620009af57600080fd5b808601620009be898262000a84565b855260208501945060208401935050506001810190506200098e565b5050509392505050565b6000620009fb620009f58462000e3c565b62000de4565b90508281526020810184848401111562000a1457600080fd5b62000a2184828562000fac565b509392505050565b60008151905062000a3a816200122a565b92915050565b600082601f83011262000a5257600080fd5b815162000a6484826020860162000954565b91505092915050565b60008151905062000a7e8162001244565b92915050565b600082601f83011262000a9657600080fd5b815162000aa8848260208601620009e4565b91505092915050565b60006020828403121562000ac457600080fd5b600062000ad48482850162000a6d565b91505092915050565b6000806000806080858703121562000af457600080fd5b600085015167ffffffffffffffff81111562000b0f57600080fd5b62000b1d8782880162000a84565b945050602085015167ffffffffffffffff81111562000b3b57600080fd5b62000b498782880162000a84565b935050604085015167ffffffffffffffff81111562000b6757600080fd5b62000b758782880162000a40565b925050606062000b888782880162000a29565b91505092959194509250565b62000b9f8162000f42565b82525050565b600062000bb28262000e72565b62000bbe818562000e88565b935062000bd081856020860162000fac565b62000bdb8162001129565b840191505092915050565b600062000bf38262000e7d565b62000bff818562000e99565b935062000c1181856020860162000fac565b62000c1c8162001129565b840191505092915050565b600062000c3660328362000e99565b915062000c43826200113a565b604082019050919050565b600062000c5d601c8362000e99565b915062000c6a8262001189565b602082019050919050565b600062000c84602e8362000e99565b915062000c9182620011b2565b604082019050919050565b600062000cab60208362000e99565b915062000cb88262001201565b602082019050919050565b62000cce8162000fa2565b82525050565b600060808201905062000ceb600083018762000b94565b62000cfa602083018662000b94565b62000d09604083018562000cc3565b818103606083015262000d1d818462000ba5565b905095945050505050565b6000604082019050818103600083015262000d44818562000be6565b905062000d55602083018462000cc3565b9392505050565b6000602082019050818103600083015262000d778162000c27565b9050919050565b6000602082019050818103600083015262000d998162000c4e565b9050919050565b6000602082019050818103600083015262000dbb8162000c75565b9050919050565b6000602082019050818103600083015262000ddd8162000c9c565b9050919050565b600062000df062000e03565b905062000dfe828262001018565b919050565b6000604051905090565b600067ffffffffffffffff82111562000e2b5762000e2a620010fa565b5b602082029050602081019050919050565b600067ffffffffffffffff82111562000e5a5762000e59620010fa565b5b62000e658262001129565b9050602081019050919050565b600081519050919050565b600081519050919050565b600082825260208201905092915050565b600082825260208201905092915050565b600062000eb78262000fa2565b915062000ec48362000fa2565b9250827fffffffffffffffffffffffffffffffffffffffffffffffffffffffffffffffff0382111562000efc5762000efb6200109c565b5b828201905092915050565b600062000f148262000fa2565b915062000f218362000fa2565b92508282101562000f375762000f366200109c565b5b828203905092915050565b600062000f4f8262000f82565b9050919050565b60007fffffffff0000000000000000000000000000000000000000000000000000000082169050919050565b600073ffffffffffffffffffffffffffffffffffffffff82169050919050565b6000819050919050565b60005b8381101562000fcc57808201518184015260208101905062000faf565b8381111562000fdc576000848401525b50505050565b6000600282049050600182168062000ffb57607f821691505b60208210811415620010125762001011620010cb565b5b50919050565b620010238262001129565b810181811067ffffffffffffffff82111715620010455762001044620010fa565b5b80604052505050565b60006200105b8262000fa2565b91507fffffffffffffffffffffffffffffffffffffffffffffffffffffffffffffffff8214156200109157620010906200109c565b5b600182019050919050565b7f4e487b7100000000000000000000000000000000000000000000000000000000600052601160045260246000fd5b7f4e487b7100000000000000000000000000000000000000000000000000000000600052602260045260246000fd5b7f4e487b7100000000000000000000000000000000000000000000000000000000600052604160045260246000fd5b6000601f19601f8301169050919050565b7f4552433732313a207472616e7366657220746f206e6f6e20455243373231526560008201527f63656976657220696d706c656d656e7465720000000000000000000000000000602082015250565b7f4552433732313a20746f6b656e20616c7265616479206d696e74656400000000600082015250565b7f45524337323155524953746f726167653a2055524920736574206f66206e6f6e60008201527f6578697374656e7420746f6b656e000000000000000000000000000000000000602082015250565b7f4552433732313a206d696e7420746f20746865207a65726f2061646472657373600082015250565b620012358162000f42565b81146200124157600080fd5b50565b6200124f8162000f56565b81146200125b57600080fd5b50565b612c01806200126e6000396000f3fe608060405234801561001057600080fd5b50600436106100ea5760003560e01c80636352211e1161008c578063a22cb46511610066578063a22cb4651461026f578063b88d4fde1461028b578063c87b56dd146102a7578063e985e9c5146102d7576100ea565b80636352211e146101f157806370a082311461022157806395d89b4114610251576100ea565b8063095ea7b3116100c8578063095ea7b31461016d57806323b872dd1461018957806336b7c1f7146101a557806342842e0e146101d5576100ea565b806301ffc9a7146100ef57806306fdde031461011f578063081812fc1461013d575b600080fd5b61010960048036038101906101049190611f72565b610307565b6040516101169190612340565b60405180910390f35b6101276103e9565b604051610134919061235b565b60405180910390f35b61015760048036038101906101529190612018565b61047b565b60405161016491906122d9565b60405180910390f35b61018760048036038101906101829190611f36565b6104c1565b005b6101a3600480360381019061019e9190611e30565b6105d9565b005b6101bf60048036038101906101ba9190611fc4565b610639565b6040516101cc919061252d565b60405180910390f35b6101ef60048036038101906101ea9190611e30565b6106a4565b005b61020b60048036038101906102069190612018565b6106c4565b60405161021891906122d9565b60405180910390f35b61023b60048036038101906102369190611dcb565b61074b565b604051610248919061252d565b60405180910390f35b610259610803565b604051610266919061235b565b60405180910390f35b61028960048036038101906102849190611efa565b610895565b005b6102a560048036038101906102a09190611e7f565b6108ab565b005b6102c160048036038101906102bc9190612018565b61090d565b6040516102ce919061235b565b60405180910390f35b6102f160048036038101906102ec9190611df4565b610a20565b6040516102fe9190612340565b60405180910390f35b60007f80ac58cd000000000000000000000000000000000000000000000000000000007bffffffffffffffffffffffffffffffffffffffffffffffffffffffff1916827bffffffffffffffffffffffffffffffffffffffffffffffffffffffff191614806103d257507f5b5e139f000000000000000000000000000000000000000000000000000000007bffffffffffffffffffffffffffffffffffffffffffffffffffffffff1916827bffffffffffffffffffffffffffffffffffffffffffffffffffffffff1916145b806103e257506103e182610afb565b5b9050919050565b6060600080546103f890612752565b80601f016020809104026020016040519081016040528092919081815260200182805461042490612752565b80156104715780601f1061044657610100808354040283529160200191610471565b820191906000526020600020905b81548152906001019060200180831161045457829003601f168201915b5050505050905090565b600061048682610b65565b6004600083815260200190815260200160002060009054906101000a900473ffffffffffffffffffffffffffffffffffffffff169050919050565b60006104cc826106c4565b90508073ffffffffffffffffffffffffffffffffffffffff168373ffffffffffffffffffffffffffffffffffffffff16141561053d576040517f08c379a0000000000000000000000000000000000000000000000000000000008152600401610534906124ed565b60405180910390fd5b8073ffffffffffffffffffffffffffffffffffffffff1661055c610bb0565b73ffffffffffffffffffffffffffffffffffffffff16148061058b575061058a81610585610bb0565b610a20565b5b6105ca576040517f08c379a00000000000000000000000000000000000000000000000000000000081526004016105c19061250d565b60405180910390fd5b6105d48383610bb8565b505050565b6105ea6105e4610bb0565b82610c71565b610629576040517f08c379a0000000000000000000000000000000000000000000000000000000008152600401610620906123ad565b60405180910390fd5b610634838383610d06565b505050565b60006106456007610ab4565b61064f6007610aca565b905061065b8282611000565b610665818461101e565b7fcf9e86cbc2da311d9fea61267a2b27d6b148f3394556d956d14af0dd849d2f03838260405161069692919061237d565b60405180910390a192915050565b6106bf838383604051806020016040528060008152506108ab565b505050565b6000806106d083611092565b9050600073ffffffffffffffffffffffffffffffffffffffff168173ffffffffffffffffffffffffffffffffffffffff161415610742576040517f08c379a0000000000000000000000000000000000000000000000000000000008152600401610739906124cd565b60405180910390fd5b80915050919050565b60008073ffffffffffffffffffffffffffffffffffffffff168273ffffffffffffffffffffffffffffffffffffffff1614156107bc576040517f08c379a00000000000000000000000000000000000000000000000000000000081526004016107b39061246d565b60405180910390fd5b600360008373ffffffffffffffffffffffffffffffffffffffff1673ffffffffffffffffffffffffffffffffffffffff168152602001908152602001600020549050919050565b60606001805461081290612752565b80601f016020809104026020016040519081016040528092919081815260200182805461083e90612752565b801561088b5780601f106108605761010080835404028352916020019161088b565b820191906000526020600020905b81548152906001019060200180831161086e57829003601f168201915b5050505050905090565b6108a76108a0610bb0565b83836110cf565b5050565b6108bc6108b6610bb0565b83610c71565b6108fb576040517f08c379a00000000000000000000000000000000000000000000000000000000081526004016108f2906123ad565b60405180910390fd5b6109078484848461123c565b50505050565b606061091882610b65565b600060066000848152602001908152602001600020805461093890612752565b80601f016020809104026020016040519081016040528092919081815260200182805461096490612752565b80156109b15780601f10610986576101008083540402835291602001916109b1565b820191906000526020600020905b81548152906001019060200180831161099457829003601f168201915b5050505050905060006109c2611298565b90506000815114156109d8578192505050610a1b565b600082511115610a0d5780826040516020016109f59291906122b5565b60405160208183030381529060405292505050610a1b565b610a16846112af565b925050505b919050565b6000600560008473ffffffffffffffffffffffffffffffffffffffff1673ffffffffffffffffffffffffffffffffffffffff16815260200190815260200160002060008373ffffffffffffffffffffffffffffffffffffffff1673ffffffffffffffffffffffffffffffffffffffff16815260200190815260200160002060009054906101000a900460ff16905092915050565b6001816000016000828254019250508190555050565b600081600001549050919050565b6000808273ffffffffffffffffffffffffffffffffffffffff163b119050919050565b60007f01ffc9a7000000000000000000000000000000000000000000000000000000007bffffffffffffffffffffffffffffffffffffffffffffffffffffffff1916827bffffffffffffffffffffffffffffffffffffffffffffffffffffffff1916149050919050565b610b6e81611317565b610bad576040517f08c379a0000000000000000000000000000000000000000000000000000000008152600401610ba4906124cd565b60405180910390fd5b50565b600033905090565b816004600083815260200190815260200160002060006101000a81548173ffffffffffffffffffffffffffffffffffffffff021916908373ffffffffffffffffffffffffffffffffffffffff160217905550808273ffffffffffffffffffffffffffffffffffffffff16610c2b836106c4565b73ffffffffffffffffffffffffffffffffffffffff167f8c5be1e5ebec7d5bd14f71427d1e84f3dd0314c0f7b2291e5b200ac8c7c3b92560405160405180910390a45050565b600080610c7d836106c4565b90508073ffffffffffffffffffffffffffffffffffffffff168473ffffffffffffffffffffffffffffffffffffffff161480610cbf5750610cbe8185610a20565b5b80610cfd57508373ffffffffffffffffffffffffffffffffffffffff16610ce58461047b565b73ffffffffffffffffffffffffffffffffffffffff16145b91505092915050565b8273ffffffffffffffffffffffffffffffffffffffff16610d26826106c4565b73ffffffffffffffffffffffffffffffffffffffff1614610d7c576040517f08c379a0000000000000000000000000000000000000000000000000000000008152600401610d73906123ed565b60405180910390fd5b600073ffffffffffffffffffffffffffffffffffffffff168273ffffffffffffffffffffffffffffffffffffffff161415610dec576040517f08c379a0000000000000000000000000000000000000000000000000000000008152600401610de39061242d565b60405180910390fd5b610df98383836001611358565b8273ffffffffffffffffffffffffffffffffffffffff16610e19826106c4565b73ffffffffffffffffffffffffffffffffffffffff1614610e6f576040517f08c379a0000000000000000000000000000000000000000000000000000000008152600401610e66906123ed565b60405180910390fd5b6004600082815260200190815260200160002060006101000a81549073ffffffffffffffffffffffffffffffffffffffff02191690556001600360008573ffffffffffffffffffffffffffffffffffffffff1673ffffffffffffffffffffffffffffffffffffffff168152602001908152602001600020600082825403925050819055506001600360008473ffffffffffffffffffffffffffffffffffffffff1673ffffffffffffffffffffffffffffffffffffffff16815260200190815260200160002060008282540192505081905550816002600083815260200190815260200160002060006101000a81548173ffffffffffffffffffffffffffffffffffffffff021916908373ffffffffffffffffffffffffffffffffffffffff160217905550808273ffffffffffffffffffffffffffffffffffffffff168473ffffffffffffffffffffffffffffffffffffffff167fddf252ad1be2c89b69c2b068fc378daa952ba7f163c4a11628f55a4df523b3ef60405160405180910390a4610ffb838383600161147e565b505050565b61101a828260405180602001604052806000815250611484565b5050565b61102782611317565b611066576040517f08c379a000000000000000000000000000000000000000000000000000000000815260040161105d9061248d565b60405180910390fd5b8060066000848152602001908152602001600020908051906020019061108d929190611bef565b505050565b60006002600083815260200190815260200160002060009054906101000a900473ffffffffffffffffffffffffffffffffffffffff169050919050565b8173ffffffffffffffffffffffffffffffffffffffff168373ffffffffffffffffffffffffffffffffffffffff16141561113e576040517f08c379a00000000000000000000000000000000000000000000000000000000081526004016111359061244d565b60405180910390fd5b80600560008573ffffffffffffffffffffffffffffffffffffffff1673ffffffffffffffffffffffffffffffffffffffff16815260200190815260200160002060008473ffffffffffffffffffffffffffffffffffffffff1673ffffffffffffffffffffffffffffffffffffffff16815260200190815260200160002060006101000a81548160ff0219169083151502179055508173ffffffffffffffffffffffffffffffffffffffff168373ffffffffffffffffffffffffffffffffffffffff167f17307eab39ab6107e8899845ad3d59bd9653f200f220920489ca2b5937696c318360405161122f9190612340565b60405180910390a3505050565b611247848484610d06565b611253848484846114df565b611292576040517f08c379a0000000000000000000000000000000000000000000000000000000008152600401611289906123cd565b60405180910390fd5b50505050565b606060405180602001604052806000815250905090565b60606112ba82610b65565b60006112c4611298565b905060008151116112e4576040518060200160405280600081525061130f565b806112ee84611676565b6040516020016112ff9291906122b5565b6040516020818303038152906040525b915050919050565b60008073ffffffffffffffffffffffffffffffffffffffff1661133983611092565b73ffffffffffffffffffffffffffffffffffffffff1614159050919050565b600181111561147857600073ffffffffffffffffffffffffffffffffffffffff168473ffffffffffffffffffffffffffffffffffffffff16146113ec5780600360008673ffffffffffffffffffffffffffffffffffffffff1673ffffffffffffffffffffffffffffffffffffffff16815260200190815260200160002060008282546113e49190612668565b925050819055505b600073ffffffffffffffffffffffffffffffffffffffff168373ffffffffffffffffffffffffffffffffffffffff16146114775780600360008573ffffffffffffffffffffffffffffffffffffffff1673ffffffffffffffffffffffffffffffffffffffff168152602001908152602001600020600082825461146f9190612612565b925050819055505b5b50505050565b50505050565b61148e838361179a565b61149b60008484846114df565b6114da576040517f08c379a00000000000000000000000000000000000000000000000000000000081526004016114d1906123cd565b60405180910390fd5b505050565b60006115008473ffffffffffffffffffffffffffffffffffffffff16610ad8565b15611669578373ffffffffffffffffffffffffffffffffffffffff1663150b7a02611529610bb0565b8786866040518563ffffffff1660e01b815260040161154b94939291906122f4565b602060405180830381600087803b15801561156557600080fd5b505af192505050801561159657506040513d601f19601f820116820180604052508101906115939190611f9b565b60015b611619573d80600081146115c6576040519150601f19603f3d011682016040523d82523d6000602084013e6115cb565b606091505b50600081511415611611576040517f08c379a0000000000000000000000000000000000000000000000000000000008152600401611608906123cd565b60405180910390fd5b805181602001fd5b63150b7a0260e01b7bffffffffffffffffffffffffffffffffffffffffffffffffffffffff1916817bffffffffffffffffffffffffffffffffffffffffffffffffffffffff19161491505061166e565b600190505b949350505050565b606060006001611685846119b8565b01905060008167ffffffffffffffff8111156116ca577f4e487b7100000000000000000000000000000000000000000000000000000000600052604160045260246000fd5b6040519080825280601f01601f1916602001820160405280156116fc5781602001600182028036833780820191505090505b509050600082602001820190505b60011561178f578080600190039150507f3031323334353637383961626364656600000000000000000000000000000000600a86061a8153600a8581611779577f4e487b7100000000000000000000000000000000000000000000000000000000600052601260045260246000fd5b049450600085141561178a5761178f565b61170a565b819350505050919050565b600073ffffffffffffffffffffffffffffffffffffffff168273ffffffffffffffffffffffffffffffffffffffff16141561180a576040517f08c379a0000000000000000000000000000000000000000000000000000000008152600401611801906124ad565b60405180910390fd5b61181381611317565b15611853576040517f08c379a000000000000000000000000000000000000000000000000000000000815260040161184a9061240d565b60405180910390fd5b611861600083836001611358565b61186a81611317565b156118aa576040517f08c379a00000000000000000000000000000000000000000000000000000000081526004016118a19061240d565b60405180910390fd5b6001600360008473ffffffffffffffffffffffffffffffffffffffff1673ffffffffffffffffffffffffffffffffffffffff16815260200190815260200160002060008282540192505081905550816002600083815260200190815260200160002060006101000a81548173ffffffffffffffffffffffffffffffffffffffff021916908373ffffffffffffffffffffffffffffffffffffffff160217905550808273ffffffffffffffffffffffffffffffffffffffff16600073ffffffffffffffffffffffffffffffffffffffff167fddf252ad1be2c89b69c2b068fc378daa952ba7f163c4a11628f55a4df523b3ef60405160405180910390a46119b460008383600161147e565b5050565b600080600090507a184f03e93ff9f4daa797ed6e38ed64bf6a1f0100000000000000008310611a3c577a184f03e93ff9f4daa797ed6e38ed64bf6a1f0100000000000000008381611a32577f4e487b7100000000000000000000000000000000000000000000000000000000600052601260045260246000fd5b0492506040810190505b6d04ee2d6d415b85acef81000000008310611a9f576d04ee2d6d415b85acef81000000008381611a95577f4e487b7100000000000000000000000000000000000000000000000000000000600052601260045260246000fd5b0492506020810190505b662386f26fc100008310611af457662386f26fc100008381611aea577f4e487b7100000000000000000000000000000000000000000000000000000000600052601260045260246000fd5b0492506010810190505b6305f5e1008310611b43576305f5e1008381611b39577f4e487b7100000000000000000000000000000000000000000000000000000000600052601260045260246000fd5b0492506008810190505b6127108310611b8e576127108381611b84577f4e487b7100000000000000000000000000000000000000000000000000000000600052601260045260246000fd5b0492506004810190505b60648310611bd75760648381611bcd577f4e487b7100000000000000000000000000000000000000000000000000000000600052601260045260246000fd5b0492506002810190505b600a8310611be6576001810190505b80915050919050565b828054611bfb90612752565b90600052602060002090601f016020900481019282611c1d5760008555611c64565b82601f10611c3657805160ff1916838001178555611c64565b82800160010185558215611c64579182015b82811115611c63578251825591602001919060010190611c48565b5b509050611c719190611c75565b5090565b5b80821115611c8e576000816000905550600101611c76565b5090565b6000611ca5611ca08461256d565b612548565b905082815260208101848484011115611cbd57600080fd5b611cc8848285612710565b509392505050565b6000611ce3611cde8461259e565b612548565b905082815260208101848484011115611cfb57600080fd5b611d06848285612710565b509392505050565b600081359050611d1d81612b6f565b92915050565b600081359050611d3281612b86565b92915050565b600081359050611d4781612b9d565b92915050565b600081519050611d5c81612b9d565b92915050565b600082601f830112611d7357600080fd5b8135611d83848260208601611c92565b91505092915050565b600082601f830112611d9d57600080fd5b8135611dad848260208601611cd0565b91505092915050565b600081359050611dc581612bb4565b92915050565b600060208284031215611ddd57600080fd5b6000611deb84828501611d0e565b91505092915050565b60008060408385031215611e0757600080fd5b6000611e1585828601611d0e565b9250506020611e2685828601611d0e565b9150509250929050565b600080600060608486031215611e4557600080fd5b6000611e5386828701611d0e565b9350506020611e6486828701611d0e565b9250506040611e7586828701611db6565b9150509250925092565b60008060008060808587031215611e9557600080fd5b6000611ea387828801611d0e565b9450506020611eb487828801611d0e565b9350506040611ec587828801611db6565b925050606085013567ffffffffffffffff811115611ee257600080fd5b611eee87828801611d62565b91505092959194509250565b60008060408385031215611f0d57600080fd5b6000611f1b85828601611d0e565b9250506020611f2c85828601611d23565b9150509250929050565b60008060408385031215611f4957600080fd5b6000611f5785828601611d0e565b9250506020611f6885828601611db6565b9150509250929050565b600060208284031215611f8457600080fd5b6000611f9284828501611d38565b91505092915050565b600060208284031215611fad57600080fd5b6000611fbb84828501611d4d565b91505092915050565b60008060408385031215611fd757600080fd5b600083013567ffffffffffffffff811115611ff157600080fd5b611ffd85828601611d8c565b925050602061200e85828601611d0e565b9150509250929050565b60006020828403121561202a57600080fd5b600061203884828501611db6565b91505092915050565b61204a8161269c565b82525050565b612059816126ae565b82525050565b600061206a826125cf565b61207481856125e5565b935061208481856020860161271f565b61208d81612842565b840191505092915050565b60006120a3826125da565b6120ad81856125f6565b93506120bd81856020860161271f565b6120c681612842565b840191505092915050565b60006120dc826125da565b6120e68185612607565b93506120f681856020860161271f565b80840191505092915050565b600061210f602d836125f6565b915061211a82612853565b604082019050919050565b60006121326032836125f6565b915061213d826128a2565b604082019050919050565b60006121556025836125f6565b9150612160826128f1565b604082019050919050565b6000612178601c836125f6565b915061218382612940565b602082019050919050565b600061219b6024836125f6565b91506121a682612969565b604082019050919050565b60006121be6019836125f6565b91506121c9826129b8565b602082019050919050565b60006121e16029836125f6565b91506121ec826129e1565b604082019050919050565b6000612204602e836125f6565b915061220f82612a30565b604082019050919050565b60006122276020836125f6565b915061223282612a7f565b602082019050919050565b600061224a6018836125f6565b915061225582612aa8565b602082019050919050565b600061226d6021836125f6565b915061227882612ad1565b604082019050919050565b6000612290603d836125f6565b915061229b82612b20565b604082019050919050565b6122af81612706565b82525050565b60006122c182856120d1565b91506122cd82846120d1565b91508190509392505050565b60006020820190506122ee6000830184612041565b92915050565b60006080820190506123096000830187612041565b6123166020830186612041565b61232360408301856122a6565b8181036060830152612335818461205f565b905095945050505050565b60006020820190506123556000830184612050565b92915050565b600060208201905081810360008301526123758184612098565b905092915050565b600060408201905081810360008301526123978185612098565b90506123a660208301846122a6565b9392505050565b600060208201905081810360008301526123c681612102565b9050919050565b600060208201905081810360008301526123e681612125565b9050919050565b6000602082019050818103600083015261240681612148565b9050919050565b600060208201905081810360008301526124268161216b565b9050919050565b600060208201905081810360008301526124468161218e565b9050919050565b60006020820190508181036000830152612466816121b1565b9050919050565b60006020820190508181036000830152612486816121d4565b9050919050565b600060208201905081810360008301526124a6816121f7565b9050919050565b600060208201905081810360008301526124c68161221a565b9050919050565b600060208201905081810360008301526124e68161223d565b9050919050565b6000602082019050818103600083015261250681612260565b9050919050565b6000602082019050818103600083015261252681612283565b9050919050565b600060208201905061254260008301846122a6565b92915050565b6000612552612563565b905061255e8282612784565b919050565b6000604051905090565b600067ffffffffffffffff82111561258857612587612813565b5b61259182612842565b9050602081019050919050565b600067ffffffffffffffff8211156125b9576125b8612813565b5b6125c282612842565b9050602081019050919050565b600081519050919050565b600081519050919050565b600082825260208201905092915050565b600082825260208201905092915050565b600081905092915050565b600061261d82612706565b915061262883612706565b9250827fffffffffffffffffffffffffffffffffffffffffffffffffffffffffffffffff0382111561265d5761265c6127b5565b5b828201905092915050565b600061267382612706565b915061267e83612706565b925082821015612691576126906127b5565b5b828203905092915050565b60006126a7826126e6565b9050919050565b60008115159050919050565b60007fffffffff0000000000000000000000000000000000000000000000000000000082169050919050565b600073ffffffffffffffffffffffffffffffffffffffff82169050919050565b6000819050919050565b82818337600083830152505050565b60005b8381101561273d578082015181840152602081019050612722565b8381111561274c576000848401525b50505050565b6000600282049050600182168061276a57607f821691505b6020821081141561277e5761277d6127e4565b5b50919050565b61278d82612842565b810181811067ffffffffffffffff821117156127ac576127ab612813565b5b80604052505050565b7f4e487b7100000000000000000000000000000000000000000000000000000000600052601160045260246000fd5b7f4e487b7100000000000000000000000000000000000000000000000000000000600052602260045260246000fd5b7f4e487b7100000000000000000000000000000000000000000000000000000000600052604160045260246000fd5b6000601f19601f8301169050919050565b7f4552433732313a2063616c6c6572206973206e6f7420746f6b656e206f776e6560008201527f72206f7220617070726f76656400000000000000000000000000000000000000602082015250565b7f4552433732313a207472616e7366657220746f206e6f6e20455243373231526560008201527f63656976657220696d706c656d656e7465720000000000000000000000000000602082015250565b7f4552433732313a207472616e736665722066726f6d20696e636f72726563742060008201527f6f776e6572000000000000000000000000000000000000000000000000000000602082015250565b7f4552433732313a20746f6b656e20616c7265616479206d696e74656400000000600082015250565b7f4552433732313a207472616e7366657220746f20746865207a65726f2061646460008201527f7265737300000000000000000000000000000000000000000000000000000000602082015250565b7f4552433732313a20617070726f766520746f2063616c6c657200000000000000600082015250565b7f4552433732313a2061646472657373207a65726f206973206e6f74206120766160008201527f6c6964206f776e65720000000000000000000000000000000000000000000000602082015250565b7f45524337323155524953746f726167653a2055524920736574206f66206e6f6e60008201527f6578697374656e7420746f6b656e000000000000000000000000000000000000602082015250565b7f4552433732313a206d696e7420746f20746865207a65726f2061646472657373600082015250565b7f4552433732313a20696e76616c696420746f6b656e2049440000000000000000600082015250565b7f4552433732313a20617070726f76616c20746f2063757272656e74206f776e6560008201527f7200000000000000000000000000000000000000000000000000000000000000602082015250565b7f4552433732313a20617070726f76652063616c6c6572206973206e6f7420746f60008201527f6b656e206f776e6572206f7220617070726f76656420666f7220616c6c000000602082015250565b612b788161269c565b8114612b8357600080fd5b50565b612b8f816126ae565b8114612b9a57600080fd5b50565b612ba6816126ba565b8114612bb157600080fd5b50565b612bbd81612706565b8114612bc857600080fd5b5056fea26469706673582212206829c451f28129b09549bdc4858e8905a8c0f82b29e3f3b92071301a81d9dcec64736f6c63430008040033",
  "linkReferences": {},
  "deployedLinkReferences": {}
}