{
  "_format": "hh-sol-artifact-1",
  "contractName": "SingletonNFT",
  "sourceName": "contracts/SingletonNFT.sol",
  "abi": [
    {
      "inputs": [
        {
          "internalType": "string",
          "name": "name_",
          "type": "string"
        },
        {
          "internalType": "string",
          "name": "smbl_",
          "type": "string"
        }
      ],
      "stateMutability": "nonpayable",
      "type": "constructor"
    },
    {
      "anonymous": false,
      "inputs": [
        {
          "indexed": true,
          "internalType": "address",
          "name": "owner",
          "type": "address"
        },
        {
          "indexed": true,
          "internalType": "address",
          "name": "approved",
          "type": "address"
        },
        {
          "indexed": true,
          "internalType": "uint256",
          "name": "tokenId",
          "type": "uint256"
        }
      ],
      "name": "Approval",
      "type": "event"
    },
    {
      "anonymous": false,
      "inputs": [
        {
          "indexed": true,
          "internalType": "address",
          "name": "owner",
          "type": "address"
        },
        {
          "indexed": true,
          "internalType": "address",
          "name": "operator",
          "type": "address"
        },
        {
          "indexed": false,
          "internalType": "bool",
          "name": "approved",
          "type": "bool"
        }
      ],
      "name": "ApprovalForAll",
      "type": "event"
    },
    {
      "anonymous": false,
      "inputs": [
        {
          "indexed": false,
          "internalType": "string",
          "name": "file_id",
          "type": "string"
        },
        {
          "indexed": false,
          "internalType": "uint256",
          "name": "token_id",
          "type": "uint256"
        }
      ],
      "name": "ItemCreated",
      "type": "event"
    },
    {
      "anonymous": false,
      "inputs": [
        {
          "indexed": true,
          "internalType": "address",
          "name": "previousOwner",
          "type": "address"
        },
        {
          "indexed": true,
          "internalType": "address",
          "name": "newOwner",
          "type": "address"
        }
      ],
      "name": "OwnershipTransferred",
      "type": "event"
    },
    {
      "anonymous": false,
      "inputs": [
        {
          "indexed": true,
          "internalType": "address",
          "name": "from",
          "type": "address"
        },
        {
          "indexed": true,
          "internalType": "address",
          "name": "to",
          "type": "address"
        },
        {
          "indexed": true,
          "internalType": "uint256",
          "name": "tokenId",
          "type": "uint256"
        }
      ],
      "name": "Transfer",
      "type": "event"
    },
    {
      "inputs": [
        {
          "internalType": "string",
          "name": "file_id",
          "type": "string"
        }
      ],
      "name": "CreateItem",
      "outputs": [
        {
          "internalType": "uint256",
          "name": "token_id",
          "type": "uint256"
        }
      ],
      "stateMutability": "nonpayable",
      "type": "function"
    },
    {
      "inputs": [
        {
          "internalType": "address",
          "name": "to",
          "type": "address"
        },
        {
          "internalType": "uint256",
          "name": "tokenId",
          "type": "uint256"
        }
      ],
      "name": "approve",
      "outputs": [],
      "stateMutability": "nonpayable",
      "type": "function"
    },
    {
      "inputs": [
        {
          "internalType": "address",
          "name": "owner",
          "type": "address"
        }
      ],
      "name": "balanceOf",
      "outputs": [
        {
          "internalType": "uint256",
          "name": "",
          "type": "uint256"
        }
      ],
      "stateMutability": "view",
      "type": "function"
    },
    {
      "inputs": [
        {
          "internalType": "uint256",
          "name": "tokenId",
          "type": "uint256"
        }
      ],
      "name": "getApproved",
      "outputs": [
        {
          "internalType": "address",
          "name": "",
          "type": "address"
        }
      ],
      "stateMutability": "view",
      "type": "function"
    },
    {
      "inputs": [
        {
          "internalType": "address",
          "name": "owner",
          "type": "address"
        },
        {
          "internalType": "address",
          "name": "operator",
          "type": "address"
        }
      ],
      "name": "isApprovedForAll",
      "outputs": [
        {
          "internalType": "bool",
          "name": "",
          "type": "bool"
        }
      ],
      "stateMutability": "view",
      "type": "function"
    },
    {
      "inputs": [],
      "name": "name",
      "outputs": [
        {
          "internalType": "string",
          "name": "",
          "type": "string"
        }
      ],
      "stateMutability": "view",
      "type": "function"
    },
    {
      "inputs": [],
      "name": "owner",
      "outputs": [
        {
          "internalType": "address",
          "name": "",
          "type": "address"
        }
      ],
      "stateMutability": "view",
      "type": "function"
    },
    {
      "inputs": [
        {
          "internalType": "uint256",
          "name": "tokenId",
          "type": "uint256"
        }
      ],
      "name": "ownerOf",
      "outputs": [
        {
          "internalType": "address",
          "name": "",
          "type": "address"
        }
      ],
      "stateMutability": "view",
      "type": "function"
    },
    {
      "inputs": [],
      "name": "renounceOwnership",
      "outputs": [],
      "stateMutability": "nonpayable",
      "type": "function"
    },
    {
      "inputs": [
        {
          "internalType": "address",
          "name": "from",
          "type": "address"
        },
        {
          "internalType": "address",
          "name": "to",
          "type": "address"
        },
        {
          "internalType": "uint256",
          "name": "tokenId",
          "type": "uint256"
        }
      ],
      "name": "safeTransferFrom",
      "outputs": [],
      "stateMutability": "nonpayable",
      "type": "function"
    },
    {
      "inputs": [
        {
          "internalType": "address",
          "name": "from",
          "type": "address"
        },
        {
          "internalType": "address",
          "name": "to",
          "type": "address"
        },
        {
          "internalType": "uint256",
          "name": "tokenId",
          "type": "uint256"
        },
        {
          "internalType": "bytes",
          "name": "data",
          "type": "bytes"
        }
      ],
      "name": "safeTransferFrom",
      "outputs": [],
      "stateMutability": "nonpayable",
      "type": "function"
    },
    {
      "inputs": [
        {
          "internalType": "address",
          "name": "operator",
          "type": "address"
        },
        {
          "internalType": "bool",
          "name": "approved",
          "type": "bool"
        }
      ],
      "name": "setApprovalForAll",
      "outputs": [],
      "stateMutability": "nonpayable",
      "type": "function"
    },
    {
      "inputs": [
        {
          "internalType": "bytes4",
          "name": "interfaceId",
          "type": "bytes4"
        }
      ],
      "name": "supportsInterface",
      "outputs": [
        {
          "internalType": "bool",
          "name": "",
          "type": "bool"
        }
      ],
      "stateMutability": "view",
      "type": "function"
    },
    {
      "inputs": [],
      "name": "symbol",
      "outputs": [
        {
          "internalType": "string",
          "name": "",
          "type": "string"
        }
      ],
      "stateMutability": "view",
      "type": "function"
    },
    {
      "inputs": [
        {
          "internalType": "uint256",
          "name": "tokenId",
          "type": "uint256"
        }
      ],
      "name": "tokenURI",
      "outputs": [
        {
          "internalType": "string",
          "name": "",
          "type": "string"
        }
      ],
      "stateMutability": "view",
      "type": "function"
    },
    {
      "inputs": [
        {
          "internalType": "address",
          "name": "from",
          "type": "address"
        },
        {
          "internalType": "address",
          "name": "to",
          "type": "address"
        },
        {
          "internalType": "uint256",
          "name": "tokenId",
          "type": "uint256"
        }
      ],
      "name": "transferFrom",
      "outputs": [],
      "stateMutability": "nonpayable",
      "type": "function"
    },
    {
      "inputs": [
        {
          "internalType": "address",
          "name": "newOwner",
          "type": "address"
        }
      ],
      "name": "transferOwnership",
      "outputs": [],
      "stateMutability": "nonpayable",
      "type": "function"
    }
  ],
  "bytecode": "0x60806040523480156200001157600080fd5b50604051620033f4380380620033f4833981810160405281019062000037919062000285565b818181600090805190602001906200005192919062000163565b5080600190805190602001906200006a92919062000163565b5050506200008d620000816200009560201b60201c565b6200009d60201b60201c565b505062000468565b600033905090565b6000600760009054906101000a900473ffffffffffffffffffffffffffffffffffffffff16905081600760006101000a81548173ffffffffffffffffffffffffffffffffffffffff021916908373ffffffffffffffffffffffffffffffffffffffff1602179055508173ffffffffffffffffffffffffffffffffffffffff168173ffffffffffffffffffffffffffffffffffffffff167f8be0079c531659141344cd1fd0a4f28419497f9722a3daafe3b4186f6b6457e060405160405180910390a35050565b82805462000171906200038d565b90600052602060002090601f016020900481019282620001955760008555620001e1565b82601f10620001b057805160ff1916838001178555620001e1565b82800160010185558215620001e1579182015b82811115620001e0578251825591602001919060010190620001c3565b5b509050620001f09190620001f4565b5090565b5b808211156200020f576000816000905550600101620001f5565b5090565b60006200022a620002248462000321565b620002f8565b9050828152602081018484840111156200024357600080fd5b6200025084828562000357565b509392505050565b600082601f8301126200026a57600080fd5b81516200027c84826020860162000213565b91505092915050565b600080604083850312156200029957600080fd5b600083015167ffffffffffffffff811115620002b457600080fd5b620002c28582860162000258565b925050602083015167ffffffffffffffff811115620002e057600080fd5b620002ee8582860162000258565b9150509250929050565b60006200030462000317565b9050620003128282620003c3565b919050565b6000604051905090565b600067ffffffffffffffff8211156200033f576200033e62000428565b5b6200034a8262000457565b9050602081019050919050565b60005b83811015620003775780820151818401526020810190506200035a565b8381111562000387576000848401525b50505050565b60006002820490506001821680620003a657607f821691505b60208210811415620003bd57620003bc620003f9565b5b50919050565b620003ce8262000457565b810181811067ffffffffffffffff82111715620003f057620003ef62000428565b5b80604052505050565b7f4e487b7100000000000000000000000000000000000000000000000000000000600052602260045260246000fd5b7f4e487b7100000000000000000000000000000000000000000000000000000000600052604160045260246000fd5b6000601f19601f8301169050919050565b612f7c80620004786000396000f3fe608060405234801561001057600080fd5b506004361061010b5760003560e01c806370a08231116100a2578063a22cb46511610071578063a22cb465146102b8578063b88d4fde146102d4578063c87b56dd146102f0578063e985e9c514610320578063f2fde38b146103505761010b565b806370a0823114610242578063715018a6146102725780638da5cb5b1461027c57806395d89b411461029a5761010b565b806323b872dd116100de57806323b872dd146101aa57806342842e0e146101c65780636352211e146101e25780636c7be44b146102125761010b565b806301ffc9a71461011057806306fdde0314610140578063081812fc1461015e578063095ea7b31461018e575b600080fd5b61012a60048036038101906101259190612202565b61036c565b6040516101379190612603565b60405180910390f35b61014861044e565b604051610155919061261e565b60405180910390f35b61017860048036038101906101739190612295565b6104e0565b604051610185919061259c565b60405180910390f35b6101a860048036038101906101a391906121c6565b610526565b005b6101c460048036038101906101bf91906120c0565b61063e565b005b6101e060048036038101906101db91906120c0565b61069e565b005b6101fc60048036038101906101f79190612295565b6106be565b604051610209919061259c565b60405180910390f35b61022c60048036038101906102279190612254565b610745565b6040516102399190612830565b60405180910390f35b61025c6004803603810190610257919061205b565b6107af565b6040516102699190612830565b60405180910390f35b61027a610867565b005b61028461087b565b604051610291919061259c565b60405180910390f35b6102a26108a5565b6040516102af919061261e565b60405180910390f35b6102d260048036038101906102cd919061218a565b610937565b005b6102ee60048036038101906102e9919061210f565b61094d565b005b61030a60048036038101906103059190612295565b6109af565b604051610317919061261e565b60405180910390f35b61033a60048036038101906103359190612084565b610ac2565b6040516103479190612603565b60405180910390f35b61036a6004803603810190610365919061205b565b610b56565b005b60007f80ac58cd000000000000000000000000000000000000000000000000000000007bffffffffffffffffffffffffffffffffffffffffffffffffffffffff1916827bffffffffffffffffffffffffffffffffffffffffffffffffffffffff1916148061043757507f5b5e139f000000000000000000000000000000000000000000000000000000007bffffffffffffffffffffffffffffffffffffffffffffffffffffffff1916827bffffffffffffffffffffffffffffffffffffffffffffffffffffffff1916145b80610447575061044682610bda565b5b9050919050565b60606000805461045d90612a55565b80601f016020809104026020016040519081016040528092919081815260200182805461048990612a55565b80156104d65780601f106104ab576101008083540402835291602001916104d6565b820191906000526020600020905b8154815290600101906020018083116104b957829003601f168201915b5050505050905090565b60006104eb82610c44565b6004600083815260200190815260200160002060009054906101000a900473ffffffffffffffffffffffffffffffffffffffff169050919050565b6000610531826106be565b90508073ffffffffffffffffffffffffffffffffffffffff168373ffffffffffffffffffffffffffffffffffffffff1614156105a2576040517f08c379a0000000000000000000000000000000000000000000000000000000008152600401610599906127f0565b60405180910390fd5b8073ffffffffffffffffffffffffffffffffffffffff166105c1610c8f565b73ffffffffffffffffffffffffffffffffffffffff1614806105f057506105ef816105ea610c8f565b610ac2565b5b61062f576040517f08c379a000000000000000000000000000000000000000000000000000000000815260040161062690612810565b60405180910390fd5b6106398383610c97565b505050565b61064f610649610c8f565b82610d50565b61068e576040517f08c379a000000000000000000000000000000000000000000000000000000000815260040161068590612670565b60405180910390fd5b610699838383610de5565b505050565b6106b98383836040518060200160405280600081525061094d565b505050565b6000806106ca836110df565b9050600073ffffffffffffffffffffffffffffffffffffffff168173ffffffffffffffffffffffffffffffffffffffff16141561073c576040517f08c379a0000000000000000000000000000000000000000000000000000000008152600401610733906127d0565b60405180910390fd5b80915050919050565b6000610751600861111c565b61075b6008611132565b90506107673382611140565b610771818361115e565b7fcf9e86cbc2da311d9fea61267a2b27d6b148f3394556d956d14af0dd849d2f0382826040516107a2929190612640565b60405180910390a1919050565b60008073ffffffffffffffffffffffffffffffffffffffff168273ffffffffffffffffffffffffffffffffffffffff161415610820576040517f08c379a000000000000000000000000000000000000000000000000000000000815260040161081790612750565b60405180910390fd5b600360008373ffffffffffffffffffffffffffffffffffffffff1673ffffffffffffffffffffffffffffffffffffffff168152602001908152602001600020549050919050565b61086f6111d2565b6108796000611250565b565b6000600760009054906101000a900473ffffffffffffffffffffffffffffffffffffffff16905090565b6060600180546108b490612a55565b80601f01602080910402602001604051908101604052809291908181526020018280546108e090612a55565b801561092d5780601f106109025761010080835404028352916020019161092d565b820191906000526020600020905b81548152906001019060200180831161091057829003601f168201915b5050505050905090565b610949610942610c8f565b8383611316565b5050565b61095e610958610c8f565b83610d50565b61099d576040517f08c379a000000000000000000000000000000000000000000000000000000000815260040161099490612670565b60405180910390fd5b6109a984848484611483565b50505050565b60606109ba82610c44565b60006006600084815260200190815260200160002080546109da90612a55565b80601f0160208091040260200160405190810160405280929190818152602001828054610a0690612a55565b8015610a535780601f10610a2857610100808354040283529160200191610a53565b820191906000526020600020905b815481529060010190602001808311610a3657829003601f168201915b505050505090506000610a646114df565b9050600081511415610a7a578192505050610abd565b600082511115610aaf578082604051602001610a97929190612578565b60405160208183030381529060405292505050610abd565b610ab88461151c565b925050505b919050565b6000600560008473ffffffffffffffffffffffffffffffffffffffff1673ffffffffffffffffffffffffffffffffffffffff16815260200190815260200160002060008373ffffffffffffffffffffffffffffffffffffffff1673ffffffffffffffffffffffffffffffffffffffff16815260200190815260200160002060009054906101000a900460ff16905092915050565b610b5e6111d2565b600073ffffffffffffffffffffffffffffffffffffffff168173ffffffffffffffffffffffffffffffffffffffff161415610bce576040517f08c379a0000000000000000000000000000000000000000000000000000000008152600401610bc5906126b0565b60405180910390fd5b610bd781611250565b50565b60007f01ffc9a7000000000000000000000000000000000000000000000000000000007bffffffffffffffffffffffffffffffffffffffffffffffffffffffff1916827bffffffffffffffffffffffffffffffffffffffffffffffffffffffff1916149050919050565b610c4d81611584565b610c8c576040517f08c379a0000000000000000000000000000000000000000000000000000000008152600401610c83906127d0565b60405180910390fd5b50565b600033905090565b816004600083815260200190815260200160002060006101000a81548173ffffffffffffffffffffffffffffffffffffffff021916908373ffffffffffffffffffffffffffffffffffffffff160217905550808273ffffffffffffffffffffffffffffffffffffffff16610d0a836106be565b73ffffffffffffffffffffffffffffffffffffffff167f8c5be1e5ebec7d5bd14f71427d1e84f3dd0314c0f7b2291e5b200ac8c7c3b92560405160405180910390a45050565b600080610d5c836106be565b90508073ffffffffffffffffffffffffffffffffffffffff168473ffffffffffffffffffffffffffffffffffffffff161480610d9e5750610d9d8185610ac2565b5b80610ddc57508373ffffffffffffffffffffffffffffffffffffffff16610dc4846104e0565b73ffffffffffffffffffffffffffffffffffffffff16145b91505092915050565b8273ffffffffffffffffffffffffffffffffffffffff16610e05826106be565b73ffffffffffffffffffffffffffffffffffffffff1614610e5b576040517f08c379a0000000000000000000000000000000000000000000000000000000008152600401610e52906126d0565b60405180910390fd5b600073ffffffffffffffffffffffffffffffffffffffff168273ffffffffffffffffffffffffffffffffffffffff161415610ecb576040517f08c379a0000000000000000000000000000000000000000000000000000000008152600401610ec290612710565b60405180910390fd5b610ed883838360016115c5565b8273ffffffffffffffffffffffffffffffffffffffff16610ef8826106be565b73ffffffffffffffffffffffffffffffffffffffff1614610f4e576040517f08c379a0000000000000000000000000000000000000000000000000000000008152600401610f45906126d0565b60405180910390fd5b6004600082815260200190815260200160002060006101000a81549073ffffffffffffffffffffffffffffffffffffffff02191690556001600360008573ffffffffffffffffffffffffffffffffffffffff1673ffffffffffffffffffffffffffffffffffffffff168152602001908152602001600020600082825403925050819055506001600360008473ffffffffffffffffffffffffffffffffffffffff1673ffffffffffffffffffffffffffffffffffffffff16815260200190815260200160002060008282540192505081905550816002600083815260200190815260200160002060006101000a81548173ffffffffffffffffffffffffffffffffffffffff021916908373ffffffffffffffffffffffffffffffffffffffff160217905550808273ffffffffffffffffffffffffffffffffffffffff168473ffffffffffffffffffffffffffffffffffffffff167fddf252ad1be2c89b69c2b068fc378daa952ba7f163c4a11628f55a4df523b3ef60405160405180910390a46110da83838360016116eb565b505050565b60006002600083815260200190815260200160002060009054906101000a900473ffffffffffffffffffffffffffffffffffffffff169050919050565b6001816000016000828254019250508190555050565b600081600001549050919050565b61115a8282604051806020016040528060008152506116f1565b5050565b61116782611584565b6111a6576040517f08c379a000000000000000000000000000000000000000000000000000000000815260040161119d90612770565b60405180910390fd5b806006600084815260200190815260200160002090805190602001906111cd929190611e7f565b505050565b6111da610c8f565b73ffffffffffffffffffffffffffffffffffffffff166111f861087b565b73ffffffffffffffffffffffffffffffffffffffff161461124e576040517f08c379a0000000000000000000000000000000000000000000000000000000008152600401611245906127b0565b60405180910390fd5b565b6000600760009054906101000a900473ffffffffffffffffffffffffffffffffffffffff16905081600760006101000a81548173ffffffffffffffffffffffffffffffffffffffff021916908373ffffffffffffffffffffffffffffffffffffffff1602179055508173ffffffffffffffffffffffffffffffffffffffff168173ffffffffffffffffffffffffffffffffffffffff167f8be0079c531659141344cd1fd0a4f28419497f9722a3daafe3b4186f6b6457e060405160405180910390a35050565b8173ffffffffffffffffffffffffffffffffffffffff168373ffffffffffffffffffffffffffffffffffffffff161415611385576040517f08c379a000000000000000000000000000000000000000000000000000000000815260040161137c90612730565b60405180910390fd5b80600560008573ffffffffffffffffffffffffffffffffffffffff1673ffffffffffffffffffffffffffffffffffffffff16815260200190815260200160002060008473ffffffffffffffffffffffffffffffffffffffff1673ffffffffffffffffffffffffffffffffffffffff16815260200190815260200160002060006101000a81548160ff0219169083151502179055508173ffffffffffffffffffffffffffffffffffffffff168373ffffffffffffffffffffffffffffffffffffffff167f17307eab39ab6107e8899845ad3d59bd9653f200f220920489ca2b5937696c31836040516114769190612603565b60405180910390a3505050565b61148e848484610de5565b61149a8484848461174c565b6114d9576040517f08c379a00000000000000000000000000000000000000000000000000000000081526004016114d090612690565b60405180910390fd5b50505050565b60606040518060400160405280601881526020017f68747470733a2f2f74656c656772612e70682f66696c652f0000000000000000815250905090565b606061152782610c44565b60006115316114df565b90506000815111611551576040518060200160405280600081525061157c565b8061155b846118e3565b60405160200161156c929190612578565b6040516020818303038152906040525b915050919050565b60008073ffffffffffffffffffffffffffffffffffffffff166115a6836110df565b73ffffffffffffffffffffffffffffffffffffffff1614159050919050565b60018111156116e557600073ffffffffffffffffffffffffffffffffffffffff168473ffffffffffffffffffffffffffffffffffffffff16146116595780600360008673ffffffffffffffffffffffffffffffffffffffff1673ffffffffffffffffffffffffffffffffffffffff1681526020019081526020016000206000828254611651919061296b565b925050819055505b600073ffffffffffffffffffffffffffffffffffffffff168373ffffffffffffffffffffffffffffffffffffffff16146116e45780600360008573ffffffffffffffffffffffffffffffffffffffff1673ffffffffffffffffffffffffffffffffffffffff16815260200190815260200160002060008282546116dc9190612915565b925050819055505b5b50505050565b50505050565b6116fb8383611a07565b611708600084848461174c565b611747576040517f08c379a000000000000000000000000000000000000000000000000000000000815260040161173e90612690565b60405180910390fd5b505050565b600061176d8473ffffffffffffffffffffffffffffffffffffffff16611c25565b156118d6578373ffffffffffffffffffffffffffffffffffffffff1663150b7a02611796610c8f565b8786866040518563ffffffff1660e01b81526004016117b894939291906125b7565b602060405180830381600087803b1580156117d257600080fd5b505af192505050801561180357506040513d601f19601f82011682018060405250810190611800919061222b565b60015b611886573d8060008114611833576040519150601f19603f3d011682016040523d82523d6000602084013e611838565b606091505b5060008151141561187e576040517f08c379a000000000000000000000000000000000000000000000000000000000815260040161187590612690565b60405180910390fd5b805181602001fd5b63150b7a0260e01b7bffffffffffffffffffffffffffffffffffffffffffffffffffffffff1916817bffffffffffffffffffffffffffffffffffffffffffffffffffffffff1916149150506118db565b600190505b949350505050565b6060600060016118f284611c48565b01905060008167ffffffffffffffff811115611937577f4e487b7100000000000000000000000000000000000000000000000000000000600052604160045260246000fd5b6040519080825280601f01601f1916602001820160405280156119695781602001600182028036833780820191505090505b509050600082602001820190505b6001156119fc578080600190039150507f3031323334353637383961626364656600000000000000000000000000000000600a86061a8153600a85816119e6577f4e487b7100000000000000000000000000000000000000000000000000000000600052601260045260246000fd5b04945060008514156119f7576119fc565b611977565b819350505050919050565b600073ffffffffffffffffffffffffffffffffffffffff168273ffffffffffffffffffffffffffffffffffffffff161415611a77576040517f08c379a0000000000000000000000000000000000000000000000000000000008152600401611a6e90612790565b60405180910390fd5b611a8081611584565b15611ac0576040517f08c379a0000000000000000000000000000000000000000000000000000000008152600401611ab7906126f0565b60405180910390fd5b611ace6000838360016115c5565b611ad781611584565b15611b17576040517f08c379a0000000000000000000000000000000000000000000000000000000008152600401611b0e906126f0565b60405180910390fd5b6001600360008473ffffffffffffffffffffffffffffffffffffffff1673ffffffffffffffffffffffffffffffffffffffff16815260200190815260200160002060008282540192505081905550816002600083815260200190815260200160002060006101000a81548173ffffffffffffffffffffffffffffffffffffffff021916908373ffffffffffffffffffffffffffffffffffffffff160217905550808273ffffffffffffffffffffffffffffffffffffffff16600073ffffffffffffffffffffffffffffffffffffffff167fddf252ad1be2c89b69c2b068fc378daa952ba7f163c4a11628f55a4df523b3ef60405160405180910390a4611c216000838360016116eb565b5050565b6000808273ffffffffffffffffffffffffffffffffffffffff163b119050919050565b600080600090507a184f03e93ff9f4daa797ed6e38ed64bf6a1f0100000000000000008310611ccc577a184f03e93ff9f4daa797ed6e38ed64bf6a1f0100000000000000008381611cc2577f4e487b7100000000000000000000000000000000000000000000000000000000600052601260045260246000fd5b0492506040810190505b6d04ee2d6d415b85acef81000000008310611d2f576d04ee2d6d415b85acef81000000008381611d25577f4e487b7100000000000000000000000000000000000000000000000000000000600052601260045260246000fd5b0492506020810190505b662386f26fc100008310611d8457662386f26fc100008381611d7a577f4e487b7100000000000000000000000000000000000000000000000000000000600052601260045260246000fd5b0492506010810190505b6305f5e1008310611dd3576305f5e1008381611dc9577f4e487b7100000000000000000000000000000000000000000000000000000000600052601260045260246000fd5b0492506008810190505b6127108310611e1e576127108381611e14577f4e487b7100000000000000000000000000000000000000000000000000000000600052601260045260246000fd5b0492506004810190505b60648310611e675760648381611e5d577f4e487b7100000000000000000000000000000000000000000000000000000000600052601260045260246000fd5b0492506002810190505b600a8310611e76576001810190505b80915050919050565b828054611e8b90612a55565b90600052602060002090601f016020900481019282611ead5760008555611ef4565b82601f10611ec657805160ff1916838001178555611ef4565b82800160010185558215611ef4579182015b82811115611ef3578251825591602001919060010190611ed8565b5b509050611f019190611f05565b5090565b5b80821115611f1e576000816000905550600101611f06565b5090565b6000611f35611f3084612870565b61284b565b905082815260208101848484011115611f4d57600080fd5b611f58848285612a13565b509392505050565b6000611f73611f6e846128a1565b61284b565b905082815260208101848484011115611f8b57600080fd5b611f96848285612a13565b509392505050565b600081359050611fad81612eea565b92915050565b600081359050611fc281612f01565b92915050565b600081359050611fd781612f18565b92915050565b600081519050611fec81612f18565b92915050565b600082601f83011261200357600080fd5b8135612013848260208601611f22565b91505092915050565b600082601f83011261202d57600080fd5b813561203d848260208601611f60565b91505092915050565b60008135905061205581612f2f565b92915050565b60006020828403121561206d57600080fd5b600061207b84828501611f9e565b91505092915050565b6000806040838503121561209757600080fd5b60006120a585828601611f9e565b92505060206120b685828601611f9e565b9150509250929050565b6000806000606084860312156120d557600080fd5b60006120e386828701611f9e565b93505060206120f486828701611f9e565b925050604061210586828701612046565b9150509250925092565b6000806000806080858703121561212557600080fd5b600061213387828801611f9e565b945050602061214487828801611f9e565b935050604061215587828801612046565b925050606085013567ffffffffffffffff81111561217257600080fd5b61217e87828801611ff2565b91505092959194509250565b6000806040838503121561219d57600080fd5b60006121ab85828601611f9e565b92505060206121bc85828601611fb3565b9150509250929050565b600080604083850312156121d957600080fd5b60006121e785828601611f9e565b92505060206121f885828601612046565b9150509250929050565b60006020828403121561221457600080fd5b600061222284828501611fc8565b91505092915050565b60006020828403121561223d57600080fd5b600061224b84828501611fdd565b91505092915050565b60006020828403121561226657600080fd5b600082013567ffffffffffffffff81111561228057600080fd5b61228c8482850161201c565b91505092915050565b6000602082840312156122a757600080fd5b60006122b584828501612046565b91505092915050565b6122c78161299f565b82525050565b6122d6816129b1565b82525050565b60006122e7826128d2565b6122f181856128e8565b9350612301818560208601612a22565b61230a81612b45565b840191505092915050565b6000612320826128dd565b61232a81856128f9565b935061233a818560208601612a22565b61234381612b45565b840191505092915050565b6000612359826128dd565b612363818561290a565b9350612373818560208601612a22565b80840191505092915050565b600061238c602d836128f9565b915061239782612b56565b604082019050919050565b60006123af6032836128f9565b91506123ba82612ba5565b604082019050919050565b60006123d26026836128f9565b91506123dd82612bf4565b604082019050919050565b60006123f56025836128f9565b915061240082612c43565b604082019050919050565b6000612418601c836128f9565b915061242382612c92565b602082019050919050565b600061243b6024836128f9565b915061244682612cbb565b604082019050919050565b600061245e6019836128f9565b915061246982612d0a565b602082019050919050565b60006124816029836128f9565b915061248c82612d33565b604082019050919050565b60006124a4602e836128f9565b91506124af82612d82565b604082019050919050565b60006124c76020836128f9565b91506124d282612dd1565b602082019050919050565b60006124ea6020836128f9565b91506124f582612dfa565b602082019050919050565b600061250d6018836128f9565b915061251882612e23565b602082019050919050565b60006125306021836128f9565b915061253b82612e4c565b604082019050919050565b6000612553603d836128f9565b915061255e82612e9b565b604082019050919050565b61257281612a09565b82525050565b6000612584828561234e565b9150612590828461234e565b91508190509392505050565b60006020820190506125b160008301846122be565b92915050565b60006080820190506125cc60008301876122be565b6125d960208301866122be565b6125e66040830185612569565b81810360608301526125f881846122dc565b905095945050505050565b600060208201905061261860008301846122cd565b92915050565b600060208201905081810360008301526126388184612315565b905092915050565b6000604082019050818103600083015261265a8185612315565b90506126696020830184612569565b9392505050565b600060208201905081810360008301526126898161237f565b9050919050565b600060208201905081810360008301526126a9816123a2565b9050919050565b600060208201905081810360008301526126c9816123c5565b9050919050565b600060208201905081810360008301526126e9816123e8565b9050919050565b600060208201905081810360008301526127098161240b565b9050919050565b600060208201905081810360008301526127298161242e565b9050919050565b6000602082019050818103600083015261274981612451565b9050919050565b6000602082019050818103600083015261276981612474565b9050919050565b6000602082019050818103600083015261278981612497565b9050919050565b600060208201905081810360008301526127a9816124ba565b9050919050565b600060208201905081810360008301526127c9816124dd565b9050919050565b600060208201905081810360008301526127e981612500565b9050919050565b6000602082019050818103600083015261280981612523565b9050919050565b6000602082019050818103600083015261282981612546565b9050919050565b60006020820190506128456000830184612569565b92915050565b6000612855612866565b90506128618282612a87565b919050565b6000604051905090565b600067ffffffffffffffff82111561288b5761288a612b16565b5b61289482612b45565b9050602081019050919050565b600067ffffffffffffffff8211156128bc576128bb612b16565b5b6128c582612b45565b9050602081019050919050565b600081519050919050565b600081519050919050565b600082825260208201905092915050565b600082825260208201905092915050565b600081905092915050565b600061292082612a09565b915061292b83612a09565b9250827fffffffffffffffffffffffffffffffffffffffffffffffffffffffffffffffff038211156129605761295f612ab8565b5b828201905092915050565b600061297682612a09565b915061298183612a09565b92508282101561299457612993612ab8565b5b828203905092915050565b60006129aa826129e9565b9050919050565b60008115159050919050565b60007fffffffff0000000000000000000000000000000000000000000000000000000082169050919050565b600073ffffffffffffffffffffffffffffffffffffffff82169050919050565b6000819050919050565b82818337600083830152505050565b60005b83811015612a40578082015181840152602081019050612a25565b83811115612a4f576000848401525b50505050565b60006002820490506001821680612a6d57607f821691505b60208210811415612a8157612a80612ae7565b5b50919050565b612a9082612b45565b810181811067ffffffffffffffff82111715612aaf57612aae612b16565b5b80604052505050565b7f4e487b7100000000000000000000000000000000000000000000000000000000600052601160045260246000fd5b7f4e487b7100000000000000000000000000000000000000000000000000000000600052602260045260246000fd5b7f4e487b7100000000000000000000000000000000000000000000000000000000600052604160045260246000fd5b6000601f19601f8301169050919050565b7f4552433732313a2063616c6c6572206973206e6f7420746f6b656e206f776e6560008201527f72206f7220617070726f76656400000000000000000000000000000000000000602082015250565b7f4552433732313a207472616e7366657220746f206e6f6e20455243373231526560008201527f63656976657220696d706c656d656e7465720000000000000000000000000000602082015250565b7f4f776e61626c653a206e6577206f776e657220697320746865207a65726f206160008201527f6464726573730000000000000000000000000000000000000000000000000000602082015250565b7f4552433732313a207472616e736665722066726f6d20696e636f72726563742060008201527f6f776e6572000000000000000000000000000000000000000000000000000000602082015250565b7f4552433732313a20746f6b656e20616c7265616479206d696e74656400000000600082015250565b7f4552433732313a207472616e7366657220746f20746865207a65726f2061646460008201527f7265737300000000000000000000000000000000000000000000000000000000602082015250565b7f4552433732313a20617070726f766520746f2063616c6c657200000000000000600082015250565b7f4552433732313a2061646472657373207a65726f206973206e6f74206120766160008201527f6c6964206f776e65720000000000000000000000000000000000000000000000602082015250565b7f45524337323155524953746f726167653a2055524920736574206f66206e6f6e60008201527f6578697374656e7420746f6b656e000000000000000000000000000000000000602082015250565b7f4552433732313a206d696e7420746f20746865207a65726f2061646472657373600082015250565b7f4f776e61626c653a2063616c6c6572206973206e6f7420746865206f776e6572600082015250565b7f4552433732313a20696e76616c696420746f6b656e2049440000000000000000600082015250565b7f4552433732313a20617070726f76616c20746f2063757272656e74206f776e6560008201527f7200000000000000000000000000000000000000000000000000000000000000602082015250565b7f4552433732313a20617070726f76652063616c6c6572206973206e6f7420746f60008201527f6b656e206f776e6572206f7220617070726f76656420666f7220616c6c000000602082015250565b612ef38161299f565b8114612efe57600080fd5b50565b612f0a816129b1565b8114612f1557600080fd5b50565b612f21816129bd565b8114612f2c57600080fd5b50565b612f3881612a09565b8114612f4357600080fd5b5056fea264697066735822122087eaadc51a239fd71388fb5aecd3602ad5e5ded432a0d972581ad09d32c6daae64736f6c63430008040033",
  "linkReferences": {},
  "deployedLinkReferences": {}
}