{
  "_format": "hh-sol-artifact-1",
  "contractName": "SingletonNFT",
  "sourceName": "contracts/SingletonNFT.sol",
  "abi": [
    {
      "inputs": [
        {
          "internalType": "string",
          "name": "name_",
          "type": "string"
        },
        {
          "internalType": "string",
          "name": "smbl_",
          "type": "string"
        }
      ],
      "stateMutability": "nonpayable",
      "type": "constructor"
    },
    {
      "anonymous": false,
      "inputs": [
        {
          "indexed": true,
          "internalType": "address",
          "name": "owner",
          "type": "address"
        },
        {
          "indexed": true,
          "internalType": "address",
          "name": "approved",
          "type": "address"
        },
        {
          "indexed": true,
          "internalType": "uint256",
          "name": "tokenId",
          "type": "uint256"
        }
      ],
      "name": "Approval",
      "type": "event"
    },
    {
      "anonymous": false,
      "inputs": [
        {
          "indexed": true,
          "internalType": "address",
          "name": "owner",
          "type": "address"
        },
        {
          "indexed": true,
          "internalType": "address",
          "name": "operator",
          "type": "address"
        },
        {
          "indexed": false,
          "internalType": "bool",
          "name": "approved",
          "type": "bool"
        }
      ],
      "name": "ApprovalForAll",
      "type": "event"
    },
    {
      "anonymous": false,
      "inputs": [
        {
          "indexed": true,
          "internalType": "string",
          "name": "file_id",
          "type": "string"
        },
        {
          "indexed": false,
          "internalType": "uint256",
          "name": "token_id",
          "type": "uint256"
        }
      ],
      "name": "ItemCreated",
      "type": "event"
    },
    {
      "anonymous": false,
      "inputs": [
        {
          "indexed": true,
          "internalType": "address",
          "name": "previousOwner",
          "type": "address"
        },
        {
          "indexed": true,
          "internalType": "address",
          "name": "newOwner",
          "type": "address"
        }
      ],
      "name": "OwnershipTransferred",
      "type": "event"
    },
    {
      "anonymous": false,
      "inputs": [
        {
          "indexed": true,
          "internalType": "address",
          "name": "from",
          "type": "address"
        },
        {
          "indexed": true,
          "internalType": "address",
          "name": "to",
          "type": "address"
        },
        {
          "indexed": true,
          "internalType": "uint256",
          "name": "tokenId",
          "type": "uint256"
        }
      ],
      "name": "Transfer",
      "type": "event"
    },
    {
      "inputs": [
        {
          "internalType": "string",
          "name": "file_id",
          "type": "string"
        }
      ],
      "name": "CreateItem",
      "outputs": [
        {
          "internalType": "uint256",
          "name": "token_id",
          "type": "uint256"
        }
      ],
      "stateMutability": "nonpayable",
      "type": "function"
    },
    {
      "inputs": [
        {
          "internalType": "address",
          "name": "to",
          "type": "address"
        },
        {
          "internalType": "uint256",
          "name": "tokenId",
          "type": "uint256"
        }
      ],
      "name": "approve",
      "outputs": [],
      "stateMutability": "nonpayable",
      "type": "function"
    },
    {
      "inputs": [
        {
          "internalType": "address",
          "name": "owner",
          "type": "address"
        }
      ],
      "name": "balanceOf",
      "outputs": [
        {
          "internalType": "uint256",
          "name": "",
          "type": "uint256"
        }
      ],
      "stateMutability": "view",
      "type": "function"
    },
    {
      "inputs": [
        {
          "internalType": "uint256",
          "name": "tokenId",
          "type": "uint256"
        }
      ],
      "name": "getApproved",
      "outputs": [
        {
          "internalType": "address",
          "name": "",
          "type": "address"
        }
      ],
      "stateMutability": "view",
      "type": "function"
    },
    {
      "inputs": [
        {
          "internalType": "address",
          "name": "owner",
          "type": "address"
        },
        {
          "internalType": "address",
          "name": "operator",
          "type": "address"
        }
      ],
      "name": "isApprovedForAll",
      "outputs": [
        {
          "internalType": "bool",
          "name": "",
          "type": "bool"
        }
      ],
      "stateMutability": "view",
      "type": "function"
    },
    {
      "inputs": [],
      "name": "name",
      "outputs": [
        {
          "internalType": "string",
          "name": "",
          "type": "string"
        }
      ],
      "stateMutability": "view",
      "type": "function"
    },
    {
      "inputs": [],
      "name": "owner",
      "outputs": [
        {
          "internalType": "address",
          "name": "",
          "type": "address"
        }
      ],
      "stateMutability": "view",
      "type": "function"
    },
    {
      "inputs": [
        {
          "internalType": "uint256",
          "name": "tokenId",
          "type": "uint256"
        }
      ],
      "name": "ownerOf",
      "outputs": [
        {
          "internalType": "address",
          "name": "",
          "type": "address"
        }
      ],
      "stateMutability": "view",
      "type": "function"
    },
    {
      "inputs": [],
      "name": "renounceOwnership",
      "outputs": [],
      "stateMutability": "nonpayable",
      "type": "function"
    },
    {
      "inputs": [
        {
          "internalType": "address",
          "name": "from",
          "type": "address"
        },
        {
          "internalType": "address",
          "name": "to",
          "type": "address"
        },
        {
          "internalType": "uint256",
          "name": "tokenId",
          "type": "uint256"
        }
      ],
      "name": "safeTransferFrom",
      "outputs": [],
      "stateMutability": "nonpayable",
      "type": "function"
    },
    {
      "inputs": [
        {
          "internalType": "address",
          "name": "from",
          "type": "address"
        },
        {
          "internalType": "address",
          "name": "to",
          "type": "address"
        },
        {
          "internalType": "uint256",
          "name": "tokenId",
          "type": "uint256"
        },
        {
          "internalType": "bytes",
          "name": "data",
          "type": "bytes"
        }
      ],
      "name": "safeTransferFrom",
      "outputs": [],
      "stateMutability": "nonpayable",
      "type": "function"
    },
    {
      "inputs": [
        {
          "internalType": "address",
          "name": "operator",
          "type": "address"
        },
        {
          "internalType": "bool",
          "name": "approved",
          "type": "bool"
        }
      ],
      "name": "setApprovalForAll",
      "outputs": [],
      "stateMutability": "nonpayable",
      "type": "function"
    },
    {
      "inputs": [
        {
          "internalType": "bytes4",
          "name": "interfaceId",
          "type": "bytes4"
        }
      ],
      "name": "supportsInterface",
      "outputs": [
        {
          "internalType": "bool",
          "name": "",
          "type": "bool"
        }
      ],
      "stateMutability": "view",
      "type": "function"
    },
    {
      "inputs": [],
      "name": "symbol",
      "outputs": [
        {
          "internalType": "string",
          "name": "",
          "type": "string"
        }
      ],
      "stateMutability": "view",
      "type": "function"
    },
    {
      "inputs": [
        {
          "internalType": "uint256",
          "name": "tokenId",
          "type": "uint256"
        }
      ],
      "name": "tokenURI",
      "outputs": [
        {
          "internalType": "string",
          "name": "",
          "type": "string"
        }
      ],
      "stateMutability": "view",
      "type": "function"
    },
    {
      "inputs": [
        {
          "internalType": "address",
          "name": "from",
          "type": "address"
        },
        {
          "internalType": "address",
          "name": "to",
          "type": "address"
        },
        {
          "internalType": "uint256",
          "name": "tokenId",
          "type": "uint256"
        }
      ],
      "name": "transferFrom",
      "outputs": [],
      "stateMutability": "nonpayable",
      "type": "function"
    },
    {
      "inputs": [
        {
          "internalType": "address",
          "name": "newOwner",
          "type": "address"
        }
      ],
      "name": "transferOwnership",
      "outputs": [],
      "stateMutability": "nonpayable",
      "type": "function"
    }
  ],
  "bytecode": "0x60806040523480156200001157600080fd5b50604051620033ef380380620033ef833981810160405281019062000037919062000285565b818181600090805190602001906200005192919062000163565b5080600190805190602001906200006a92919062000163565b5050506200008d620000816200009560201b60201c565b6200009d60201b60201c565b505062000468565b600033905090565b6000600760009054906101000a900473ffffffffffffffffffffffffffffffffffffffff16905081600760006101000a81548173ffffffffffffffffffffffffffffffffffffffff021916908373ffffffffffffffffffffffffffffffffffffffff1602179055508173ffffffffffffffffffffffffffffffffffffffff168173ffffffffffffffffffffffffffffffffffffffff167f8be0079c531659141344cd1fd0a4f28419497f9722a3daafe3b4186f6b6457e060405160405180910390a35050565b82805462000171906200038d565b90600052602060002090601f016020900481019282620001955760008555620001e1565b82601f10620001b057805160ff1916838001178555620001e1565b82800160010185558215620001e1579182015b82811115620001e0578251825591602001919060010190620001c3565b5b509050620001f09190620001f4565b5090565b5b808211156200020f576000816000905550600101620001f5565b5090565b60006200022a620002248462000321565b620002f8565b9050828152602081018484840111156200024357600080fd5b6200025084828562000357565b509392505050565b600082601f8301126200026a57600080fd5b81516200027c84826020860162000213565b91505092915050565b600080604083850312156200029957600080fd5b600083015167ffffffffffffffff811115620002b457600080fd5b620002c28582860162000258565b925050602083015167ffffffffffffffff811115620002e057600080fd5b620002ee8582860162000258565b9150509250929050565b60006200030462000317565b9050620003128282620003c3565b919050565b6000604051905090565b600067ffffffffffffffff8211156200033f576200033e62000428565b5b6200034a8262000457565b9050602081019050919050565b60005b83811015620003775780820151818401526020810190506200035a565b8381111562000387576000848401525b50505050565b60006002820490506001821680620003a657607f821691505b60208210811415620003bd57620003bc620003f9565b5b50919050565b620003ce8262000457565b810181811067ffffffffffffffff82111715620003f057620003ef62000428565b5b80604052505050565b7f4e487b7100000000000000000000000000000000000000000000000000000000600052602260045260246000fd5b7f4e487b7100000000000000000000000000000000000000000000000000000000600052604160045260246000fd5b6000601f19601f8301169050919050565b612f7780620004786000396000f3fe608060405234801561001057600080fd5b506004361061010b5760003560e01c806370a08231116100a2578063a22cb46511610071578063a22cb465146102b8578063b88d4fde146102d4578063c87b56dd146102f0578063e985e9c514610320578063f2fde38b146103505761010b565b806370a0823114610242578063715018a6146102725780638da5cb5b1461027c57806395d89b411461029a5761010b565b806323b872dd116100de57806323b872dd146101aa57806342842e0e146101c65780636352211e146101e25780636c7be44b146102125761010b565b806301ffc9a71461011057806306fdde0314610140578063081812fc1461015e578063095ea7b31461018e575b600080fd5b61012a60048036038101906101259190612216565b61036c565b604051610137919061262e565b60405180910390f35b61014861044e565b6040516101559190612649565b60405180910390f35b610178600480360381019061017391906122a9565b6104e0565b60405161018591906125c7565b60405180910390f35b6101a860048036038101906101a391906121da565b610526565b005b6101c460048036038101906101bf91906120d4565b61063e565b005b6101e060048036038101906101db91906120d4565b61069e565b005b6101fc60048036038101906101f791906122a9565b6106be565b60405161020991906125c7565b60405180910390f35b61022c60048036038101906102279190612268565b610745565b604051610239919061282b565b60405180910390f35b61025c6004803603810190610257919061206f565b6107c3565b604051610269919061282b565b60405180910390f35b61027a61087b565b005b61028461088f565b60405161029191906125c7565b60405180910390f35b6102a26108b9565b6040516102af9190612649565b60405180910390f35b6102d260048036038101906102cd919061219e565b61094b565b005b6102ee60048036038101906102e99190612123565b610961565b005b61030a600480360381019061030591906122a9565b6109c3565b6040516103179190612649565b60405180910390f35b61033a60048036038101906103359190612098565b610ad6565b604051610347919061262e565b60405180910390f35b61036a6004803603810190610365919061206f565b610b6a565b005b60007f80ac58cd000000000000000000000000000000000000000000000000000000007bffffffffffffffffffffffffffffffffffffffffffffffffffffffff1916827bffffffffffffffffffffffffffffffffffffffffffffffffffffffff1916148061043757507f5b5e139f000000000000000000000000000000000000000000000000000000007bffffffffffffffffffffffffffffffffffffffffffffffffffffffff1916827bffffffffffffffffffffffffffffffffffffffffffffffffffffffff1916145b80610447575061044682610bee565b5b9050919050565b60606000805461045d90612a50565b80601f016020809104026020016040519081016040528092919081815260200182805461048990612a50565b80156104d65780601f106104ab576101008083540402835291602001916104d6565b820191906000526020600020905b8154815290600101906020018083116104b957829003601f168201915b5050505050905090565b60006104eb82610c58565b6004600083815260200190815260200160002060009054906101000a900473ffffffffffffffffffffffffffffffffffffffff169050919050565b6000610531826106be565b90508073ffffffffffffffffffffffffffffffffffffffff168373ffffffffffffffffffffffffffffffffffffffff1614156105a2576040517f08c379a0000000000000000000000000000000000000000000000000000000008152600401610599906127eb565b60405180910390fd5b8073ffffffffffffffffffffffffffffffffffffffff166105c1610ca3565b73ffffffffffffffffffffffffffffffffffffffff1614806105f057506105ef816105ea610ca3565b610ad6565b5b61062f576040517f08c379a00000000000000000000000000000000000000000000000000000000081526004016106269061280b565b60405180910390fd5b6106398383610cab565b505050565b61064f610649610ca3565b82610d64565b61068e576040517f08c379a00000000000000000000000000000000000000000000000000000000081526004016106859061266b565b60405180910390fd5b610699838383610df9565b505050565b6106b983838360405180602001604052806000815250610961565b505050565b6000806106ca836110f3565b9050600073ffffffffffffffffffffffffffffffffffffffff168173ffffffffffffffffffffffffffffffffffffffff16141561073c576040517f08c379a0000000000000000000000000000000000000000000000000000000008152600401610733906127cb565b60405180910390fd5b80915050919050565b60006107516008611130565b61075b6008611146565b90506107673382611154565b6107718183611172565b8160405161077f919061258c565b60405180910390207fcf9e86cbc2da311d9fea61267a2b27d6b148f3394556d956d14af0dd849d2f03826040516107b6919061282b565b60405180910390a2919050565b60008073ffffffffffffffffffffffffffffffffffffffff168273ffffffffffffffffffffffffffffffffffffffff161415610834576040517f08c379a000000000000000000000000000000000000000000000000000000000815260040161082b9061274b565b60405180910390fd5b600360008373ffffffffffffffffffffffffffffffffffffffff1673ffffffffffffffffffffffffffffffffffffffff168152602001908152602001600020549050919050565b6108836111e6565b61088d6000611264565b565b6000600760009054906101000a900473ffffffffffffffffffffffffffffffffffffffff16905090565b6060600180546108c890612a50565b80601f01602080910402602001604051908101604052809291908181526020018280546108f490612a50565b80156109415780601f1061091657610100808354040283529160200191610941565b820191906000526020600020905b81548152906001019060200180831161092457829003601f168201915b5050505050905090565b61095d610956610ca3565b838361132a565b5050565b61097261096c610ca3565b83610d64565b6109b1576040517f08c379a00000000000000000000000000000000000000000000000000000000081526004016109a89061266b565b60405180910390fd5b6109bd84848484611497565b50505050565b60606109ce82610c58565b60006006600084815260200190815260200160002080546109ee90612a50565b80601f0160208091040260200160405190810160405280929190818152602001828054610a1a90612a50565b8015610a675780601f10610a3c57610100808354040283529160200191610a67565b820191906000526020600020905b815481529060010190602001808311610a4a57829003601f168201915b505050505090506000610a786114f3565b9050600081511415610a8e578192505050610ad1565b600082511115610ac3578082604051602001610aab9291906125a3565b60405160208183030381529060405292505050610ad1565b610acc84611530565b925050505b919050565b6000600560008473ffffffffffffffffffffffffffffffffffffffff1673ffffffffffffffffffffffffffffffffffffffff16815260200190815260200160002060008373ffffffffffffffffffffffffffffffffffffffff1673ffffffffffffffffffffffffffffffffffffffff16815260200190815260200160002060009054906101000a900460ff16905092915050565b610b726111e6565b600073ffffffffffffffffffffffffffffffffffffffff168173ffffffffffffffffffffffffffffffffffffffff161415610be2576040517f08c379a0000000000000000000000000000000000000000000000000000000008152600401610bd9906126ab565b60405180910390fd5b610beb81611264565b50565b60007f01ffc9a7000000000000000000000000000000000000000000000000000000007bffffffffffffffffffffffffffffffffffffffffffffffffffffffff1916827bffffffffffffffffffffffffffffffffffffffffffffffffffffffff1916149050919050565b610c6181611598565b610ca0576040517f08c379a0000000000000000000000000000000000000000000000000000000008152600401610c97906127cb565b60405180910390fd5b50565b600033905090565b816004600083815260200190815260200160002060006101000a81548173ffffffffffffffffffffffffffffffffffffffff021916908373ffffffffffffffffffffffffffffffffffffffff160217905550808273ffffffffffffffffffffffffffffffffffffffff16610d1e836106be565b73ffffffffffffffffffffffffffffffffffffffff167f8c5be1e5ebec7d5bd14f71427d1e84f3dd0314c0f7b2291e5b200ac8c7c3b92560405160405180910390a45050565b600080610d70836106be565b90508073ffffffffffffffffffffffffffffffffffffffff168473ffffffffffffffffffffffffffffffffffffffff161480610db25750610db18185610ad6565b5b80610df057508373ffffffffffffffffffffffffffffffffffffffff16610dd8846104e0565b73ffffffffffffffffffffffffffffffffffffffff16145b91505092915050565b8273ffffffffffffffffffffffffffffffffffffffff16610e19826106be565b73ffffffffffffffffffffffffffffffffffffffff1614610e6f576040517f08c379a0000000000000000000000000000000000000000000000000000000008152600401610e66906126cb565b60405180910390fd5b600073ffffffffffffffffffffffffffffffffffffffff168273ffffffffffffffffffffffffffffffffffffffff161415610edf576040517f08c379a0000000000000000000000000000000000000000000000000000000008152600401610ed69061270b565b60405180910390fd5b610eec83838360016115d9565b8273ffffffffffffffffffffffffffffffffffffffff16610f0c826106be565b73ffffffffffffffffffffffffffffffffffffffff1614610f62576040517f08c379a0000000000000000000000000000000000000000000000000000000008152600401610f59906126cb565b60405180910390fd5b6004600082815260200190815260200160002060006101000a81549073ffffffffffffffffffffffffffffffffffffffff02191690556001600360008573ffffffffffffffffffffffffffffffffffffffff1673ffffffffffffffffffffffffffffffffffffffff168152602001908152602001600020600082825403925050819055506001600360008473ffffffffffffffffffffffffffffffffffffffff1673ffffffffffffffffffffffffffffffffffffffff16815260200190815260200160002060008282540192505081905550816002600083815260200190815260200160002060006101000a81548173ffffffffffffffffffffffffffffffffffffffff021916908373ffffffffffffffffffffffffffffffffffffffff160217905550808273ffffffffffffffffffffffffffffffffffffffff168473ffffffffffffffffffffffffffffffffffffffff167fddf252ad1be2c89b69c2b068fc378daa952ba7f163c4a11628f55a4df523b3ef60405160405180910390a46110ee83838360016116ff565b505050565b60006002600083815260200190815260200160002060009054906101000a900473ffffffffffffffffffffffffffffffffffffffff169050919050565b6001816000016000828254019250508190555050565b600081600001549050919050565b61116e828260405180602001604052806000815250611705565b5050565b61117b82611598565b6111ba576040517f08c379a00000000000000000000000000000000000000000000000000000000081526004016111b19061276b565b60405180910390fd5b806006600084815260200190815260200160002090805190602001906111e1929190611e93565b505050565b6111ee610ca3565b73ffffffffffffffffffffffffffffffffffffffff1661120c61088f565b73ffffffffffffffffffffffffffffffffffffffff1614611262576040517f08c379a0000000000000000000000000000000000000000000000000000000008152600401611259906127ab565b60405180910390fd5b565b6000600760009054906101000a900473ffffffffffffffffffffffffffffffffffffffff16905081600760006101000a81548173ffffffffffffffffffffffffffffffffffffffff021916908373ffffffffffffffffffffffffffffffffffffffff1602179055508173ffffffffffffffffffffffffffffffffffffffff168173ffffffffffffffffffffffffffffffffffffffff167f8be0079c531659141344cd1fd0a4f28419497f9722a3daafe3b4186f6b6457e060405160405180910390a35050565b8173ffffffffffffffffffffffffffffffffffffffff168373ffffffffffffffffffffffffffffffffffffffff161415611399576040517f08c379a00000000000000000000000000000000000000000000000000000000081526004016113909061272b565b60405180910390fd5b80600560008573ffffffffffffffffffffffffffffffffffffffff1673ffffffffffffffffffffffffffffffffffffffff16815260200190815260200160002060008473ffffffffffffffffffffffffffffffffffffffff1673ffffffffffffffffffffffffffffffffffffffff16815260200190815260200160002060006101000a81548160ff0219169083151502179055508173ffffffffffffffffffffffffffffffffffffffff168373ffffffffffffffffffffffffffffffffffffffff167f17307eab39ab6107e8899845ad3d59bd9653f200f220920489ca2b5937696c318360405161148a919061262e565b60405180910390a3505050565b6114a2848484610df9565b6114ae84848484611760565b6114ed576040517f08c379a00000000000000000000000000000000000000000000000000000000081526004016114e49061268b565b60405180910390fd5b50505050565b60606040518060400160405280601881526020017f68747470733a2f2f74656c656772612e70682f66696c652f0000000000000000815250905090565b606061153b82610c58565b60006115456114f3565b905060008151116115655760405180602001604052806000815250611590565b8061156f846118f7565b6040516020016115809291906125a3565b6040516020818303038152906040525b915050919050565b60008073ffffffffffffffffffffffffffffffffffffffff166115ba836110f3565b73ffffffffffffffffffffffffffffffffffffffff1614159050919050565b60018111156116f957600073ffffffffffffffffffffffffffffffffffffffff168473ffffffffffffffffffffffffffffffffffffffff161461166d5780600360008673ffffffffffffffffffffffffffffffffffffffff1673ffffffffffffffffffffffffffffffffffffffff16815260200190815260200160002060008282546116659190612966565b925050819055505b600073ffffffffffffffffffffffffffffffffffffffff168373ffffffffffffffffffffffffffffffffffffffff16146116f85780600360008573ffffffffffffffffffffffffffffffffffffffff1673ffffffffffffffffffffffffffffffffffffffff16815260200190815260200160002060008282546116f09190612910565b925050819055505b5b50505050565b50505050565b61170f8383611a1b565b61171c6000848484611760565b61175b576040517f08c379a00000000000000000000000000000000000000000000000000000000081526004016117529061268b565b60405180910390fd5b505050565b60006117818473ffffffffffffffffffffffffffffffffffffffff16611c39565b156118ea578373ffffffffffffffffffffffffffffffffffffffff1663150b7a026117aa610ca3565b8786866040518563ffffffff1660e01b81526004016117cc94939291906125e2565b602060405180830381600087803b1580156117e657600080fd5b505af192505050801561181757506040513d601f19601f82011682018060405250810190611814919061223f565b60015b61189a573d8060008114611847576040519150601f19603f3d011682016040523d82523d6000602084013e61184c565b606091505b50600081511415611892576040517f08c379a00000000000000000000000000000000000000000000000000000000081526004016118899061268b565b60405180910390fd5b805181602001fd5b63150b7a0260e01b7bffffffffffffffffffffffffffffffffffffffffffffffffffffffff1916817bffffffffffffffffffffffffffffffffffffffffffffffffffffffff1916149150506118ef565b600190505b949350505050565b60606000600161190684611c5c565b01905060008167ffffffffffffffff81111561194b577f4e487b7100000000000000000000000000000000000000000000000000000000600052604160045260246000fd5b6040519080825280601f01601f19166020018201604052801561197d5781602001600182028036833780820191505090505b509050600082602001820190505b600115611a10578080600190039150507f3031323334353637383961626364656600000000000000000000000000000000600a86061a8153600a85816119fa577f4e487b7100000000000000000000000000000000000000000000000000000000600052601260045260246000fd5b0494506000851415611a0b57611a10565b61198b565b819350505050919050565b600073ffffffffffffffffffffffffffffffffffffffff168273ffffffffffffffffffffffffffffffffffffffff161415611a8b576040517f08c379a0000000000000000000000000000000000000000000000000000000008152600401611a829061278b565b60405180910390fd5b611a9481611598565b15611ad4576040517f08c379a0000000000000000000000000000000000000000000000000000000008152600401611acb906126eb565b60405180910390fd5b611ae26000838360016115d9565b611aeb81611598565b15611b2b576040517f08c379a0000000000000000000000000000000000000000000000000000000008152600401611b22906126eb565b60405180910390fd5b6001600360008473ffffffffffffffffffffffffffffffffffffffff1673ffffffffffffffffffffffffffffffffffffffff16815260200190815260200160002060008282540192505081905550816002600083815260200190815260200160002060006101000a81548173ffffffffffffffffffffffffffffffffffffffff021916908373ffffffffffffffffffffffffffffffffffffffff160217905550808273ffffffffffffffffffffffffffffffffffffffff16600073ffffffffffffffffffffffffffffffffffffffff167fddf252ad1be2c89b69c2b068fc378daa952ba7f163c4a11628f55a4df523b3ef60405160405180910390a4611c356000838360016116ff565b5050565b6000808273ffffffffffffffffffffffffffffffffffffffff163b119050919050565b600080600090507a184f03e93ff9f4daa797ed6e38ed64bf6a1f0100000000000000008310611ce0577a184f03e93ff9f4daa797ed6e38ed64bf6a1f0100000000000000008381611cd6577f4e487b7100000000000000000000000000000000000000000000000000000000600052601260045260246000fd5b0492506040810190505b6d04ee2d6d415b85acef81000000008310611d43576d04ee2d6d415b85acef81000000008381611d39577f4e487b7100000000000000000000000000000000000000000000000000000000600052601260045260246000fd5b0492506020810190505b662386f26fc100008310611d9857662386f26fc100008381611d8e577f4e487b7100000000000000000000000000000000000000000000000000000000600052601260045260246000fd5b0492506010810190505b6305f5e1008310611de7576305f5e1008381611ddd577f4e487b7100000000000000000000000000000000000000000000000000000000600052601260045260246000fd5b0492506008810190505b6127108310611e32576127108381611e28577f4e487b7100000000000000000000000000000000000000000000000000000000600052601260045260246000fd5b0492506004810190505b60648310611e7b5760648381611e71577f4e487b7100000000000000000000000000000000000000000000000000000000600052601260045260246000fd5b0492506002810190505b600a8310611e8a576001810190505b80915050919050565b828054611e9f90612a50565b90600052602060002090601f016020900481019282611ec15760008555611f08565b82601f10611eda57805160ff1916838001178555611f08565b82800160010185558215611f08579182015b82811115611f07578251825591602001919060010190611eec565b5b509050611f159190611f19565b5090565b5b80821115611f32576000816000905550600101611f1a565b5090565b6000611f49611f448461286b565b612846565b905082815260208101848484011115611f6157600080fd5b611f6c848285612a0e565b509392505050565b6000611f87611f828461289c565b612846565b905082815260208101848484011115611f9f57600080fd5b611faa848285612a0e565b509392505050565b600081359050611fc181612ee5565b92915050565b600081359050611fd681612efc565b92915050565b600081359050611feb81612f13565b92915050565b60008151905061200081612f13565b92915050565b600082601f83011261201757600080fd5b8135612027848260208601611f36565b91505092915050565b600082601f83011261204157600080fd5b8135612051848260208601611f74565b91505092915050565b60008135905061206981612f2a565b92915050565b60006020828403121561208157600080fd5b600061208f84828501611fb2565b91505092915050565b600080604083850312156120ab57600080fd5b60006120b985828601611fb2565b92505060206120ca85828601611fb2565b9150509250929050565b6000806000606084860312156120e957600080fd5b60006120f786828701611fb2565b935050602061210886828701611fb2565b92505060406121198682870161205a565b9150509250925092565b6000806000806080858703121561213957600080fd5b600061214787828801611fb2565b945050602061215887828801611fb2565b93505060406121698782880161205a565b925050606085013567ffffffffffffffff81111561218657600080fd5b61219287828801612006565b91505092959194509250565b600080604083850312156121b157600080fd5b60006121bf85828601611fb2565b92505060206121d085828601611fc7565b9150509250929050565b600080604083850312156121ed57600080fd5b60006121fb85828601611fb2565b925050602061220c8582860161205a565b9150509250929050565b60006020828403121561222857600080fd5b600061223684828501611fdc565b91505092915050565b60006020828403121561225157600080fd5b600061225f84828501611ff1565b91505092915050565b60006020828403121561227a57600080fd5b600082013567ffffffffffffffff81111561229457600080fd5b6122a084828501612030565b91505092915050565b6000602082840312156122bb57600080fd5b60006122c98482850161205a565b91505092915050565b6122db8161299a565b82525050565b6122ea816129ac565b82525050565b60006122fb826128cd565b61230581856128e3565b9350612315818560208601612a1d565b61231e81612b40565b840191505092915050565b6000612334826128d8565b61233e81856128f4565b935061234e818560208601612a1d565b61235781612b40565b840191505092915050565b600061236d826128d8565b6123778185612905565b9350612387818560208601612a1d565b80840191505092915050565b60006123a0602d836128f4565b91506123ab82612b51565b604082019050919050565b60006123c36032836128f4565b91506123ce82612ba0565b604082019050919050565b60006123e66026836128f4565b91506123f182612bef565b604082019050919050565b60006124096025836128f4565b915061241482612c3e565b604082019050919050565b600061242c601c836128f4565b915061243782612c8d565b602082019050919050565b600061244f6024836128f4565b915061245a82612cb6565b604082019050919050565b60006124726019836128f4565b915061247d82612d05565b602082019050919050565b60006124956029836128f4565b91506124a082612d2e565b604082019050919050565b60006124b8602e836128f4565b91506124c382612d7d565b604082019050919050565b60006124db6020836128f4565b91506124e682612dcc565b602082019050919050565b60006124fe6020836128f4565b915061250982612df5565b602082019050919050565b60006125216018836128f4565b915061252c82612e1e565b602082019050919050565b60006125446021836128f4565b915061254f82612e47565b604082019050919050565b6000612567603d836128f4565b915061257282612e96565b604082019050919050565b61258681612a04565b82525050565b60006125988284612362565b915081905092915050565b60006125af8285612362565b91506125bb8284612362565b91508190509392505050565b60006020820190506125dc60008301846122d2565b92915050565b60006080820190506125f760008301876122d2565b61260460208301866122d2565b612611604083018561257d565b818103606083015261262381846122f0565b905095945050505050565b600060208201905061264360008301846122e1565b92915050565b600060208201905081810360008301526126638184612329565b905092915050565b6000602082019050818103600083015261268481612393565b9050919050565b600060208201905081810360008301526126a4816123b6565b9050919050565b600060208201905081810360008301526126c4816123d9565b9050919050565b600060208201905081810360008301526126e4816123fc565b9050919050565b600060208201905081810360008301526127048161241f565b9050919050565b6000602082019050818103600083015261272481612442565b9050919050565b6000602082019050818103600083015261274481612465565b9050919050565b6000602082019050818103600083015261276481612488565b9050919050565b60006020820190508181036000830152612784816124ab565b9050919050565b600060208201905081810360008301526127a4816124ce565b9050919050565b600060208201905081810360008301526127c4816124f1565b9050919050565b600060208201905081810360008301526127e481612514565b9050919050565b6000602082019050818103600083015261280481612537565b9050919050565b600060208201905081810360008301526128248161255a565b9050919050565b6000602082019050612840600083018461257d565b92915050565b6000612850612861565b905061285c8282612a82565b919050565b6000604051905090565b600067ffffffffffffffff82111561288657612885612b11565b5b61288f82612b40565b9050602081019050919050565b600067ffffffffffffffff8211156128b7576128b6612b11565b5b6128c082612b40565b9050602081019050919050565b600081519050919050565b600081519050919050565b600082825260208201905092915050565b600082825260208201905092915050565b600081905092915050565b600061291b82612a04565b915061292683612a04565b9250827fffffffffffffffffffffffffffffffffffffffffffffffffffffffffffffffff0382111561295b5761295a612ab3565b5b828201905092915050565b600061297182612a04565b915061297c83612a04565b92508282101561298f5761298e612ab3565b5b828203905092915050565b60006129a5826129e4565b9050919050565b60008115159050919050565b60007fffffffff0000000000000000000000000000000000000000000000000000000082169050919050565b600073ffffffffffffffffffffffffffffffffffffffff82169050919050565b6000819050919050565b82818337600083830152505050565b60005b83811015612a3b578082015181840152602081019050612a20565b83811115612a4a576000848401525b50505050565b60006002820490506001821680612a6857607f821691505b60208210811415612a7c57612a7b612ae2565b5b50919050565b612a8b82612b40565b810181811067ffffffffffffffff82111715612aaa57612aa9612b11565b5b80604052505050565b7f4e487b7100000000000000000000000000000000000000000000000000000000600052601160045260246000fd5b7f4e487b7100000000000000000000000000000000000000000000000000000000600052602260045260246000fd5b7f4e487b7100000000000000000000000000000000000000000000000000000000600052604160045260246000fd5b6000601f19601f8301169050919050565b7f4552433732313a2063616c6c6572206973206e6f7420746f6b656e206f776e6560008201527f72206f7220617070726f76656400000000000000000000000000000000000000602082015250565b7f4552433732313a207472616e7366657220746f206e6f6e20455243373231526560008201527f63656976657220696d706c656d656e7465720000000000000000000000000000602082015250565b7f4f776e61626c653a206e6577206f776e657220697320746865207a65726f206160008201527f6464726573730000000000000000000000000000000000000000000000000000602082015250565b7f4552433732313a207472616e736665722066726f6d20696e636f72726563742060008201527f6f776e6572000000000000000000000000000000000000000000000000000000602082015250565b7f4552433732313a20746f6b656e20616c7265616479206d696e74656400000000600082015250565b7f4552433732313a207472616e7366657220746f20746865207a65726f2061646460008201527f7265737300000000000000000000000000000000000000000000000000000000602082015250565b7f4552433732313a20617070726f766520746f2063616c6c657200000000000000600082015250565b7f4552433732313a2061646472657373207a65726f206973206e6f74206120766160008201527f6c6964206f776e65720000000000000000000000000000000000000000000000602082015250565b7f45524337323155524953746f726167653a2055524920736574206f66206e6f6e60008201527f6578697374656e7420746f6b656e000000000000000000000000000000000000602082015250565b7f4552433732313a206d696e7420746f20746865207a65726f2061646472657373600082015250565b7f4f776e61626c653a2063616c6c6572206973206e6f7420746865206f776e6572600082015250565b7f4552433732313a20696e76616c696420746f6b656e2049440000000000000000600082015250565b7f4552433732313a20617070726f76616c20746f2063757272656e74206f776e6560008201527f7200000000000000000000000000000000000000000000000000000000000000602082015250565b7f4552433732313a20617070726f76652063616c6c6572206973206e6f7420746f60008201527f6b656e206f776e6572206f7220617070726f76656420666f7220616c6c000000602082015250565b612eee8161299a565b8114612ef957600080fd5b50565b612f05816129ac565b8114612f1057600080fd5b50565b612f1c816129b8565b8114612f2757600080fd5b50565b612f3381612a04565b8114612f3e57600080fd5b5056fea26469706673582212208765c0d1e817ba7321b9c6d6070dfe9d27ea95bebec0b6fb9a70cd6a51d70fe164736f6c63430008040033",
  "linkReferences": {},
  "deployedLinkReferences": {}
}