{
  "_format": "hh-sol-artifact-1",
  "contractName": "SampleNFT",
  "sourceName": "contracts/SampleNFT_draft.sol",
  "abi": [
    {
      "inputs": [
        {
          "internalType": "string",
          "name": "name_",
          "type": "string"
        },
        {
          "internalType": "string",
          "name": "smbl_",
          "type": "string"
        }
      ],
      "stateMutability": "nonpayable",
      "type": "constructor"
    },
    {
      "anonymous": false,
      "inputs": [
        {
          "indexed": true,
          "internalType": "address",
          "name": "owner",
          "type": "address"
        },
        {
          "indexed": true,
          "internalType": "address",
          "name": "approved",
          "type": "address"
        },
        {
          "indexed": true,
          "internalType": "uint256",
          "name": "tokenId",
          "type": "uint256"
        }
      ],
      "name": "Approval",
      "type": "event"
    },
    {
      "anonymous": false,
      "inputs": [
        {
          "indexed": true,
          "internalType": "address",
          "name": "owner",
          "type": "address"
        },
        {
          "indexed": true,
          "internalType": "address",
          "name": "operator",
          "type": "address"
        },
        {
          "indexed": false,
          "internalType": "bool",
          "name": "approved",
          "type": "bool"
        }
      ],
      "name": "ApprovalForAll",
      "type": "event"
    },
    {
      "anonymous": false,
      "inputs": [
        {
          "indexed": true,
          "internalType": "address",
          "name": "from",
          "type": "address"
        },
        {
          "indexed": true,
          "internalType": "address",
          "name": "to",
          "type": "address"
        },
        {
          "indexed": true,
          "internalType": "uint256",
          "name": "tokenId",
          "type": "uint256"
        }
      ],
      "name": "Transfer",
      "type": "event"
    },
    {
      "inputs": [
        {
          "internalType": "string",
          "name": "file_id",
          "type": "string"
        }
      ],
      "name": "CreateItem",
      "outputs": [
        {
          "internalType": "uint256",
          "name": "token_id",
          "type": "uint256"
        }
      ],
      "stateMutability": "nonpayable",
      "type": "function"
    },
    {
      "inputs": [
        {
          "internalType": "address",
          "name": "to",
          "type": "address"
        },
        {
          "internalType": "uint256",
          "name": "tokenId",
          "type": "uint256"
        }
      ],
      "name": "approve",
      "outputs": [],
      "stateMutability": "nonpayable",
      "type": "function"
    },
    {
      "inputs": [
        {
          "internalType": "address",
          "name": "owner",
          "type": "address"
        }
      ],
      "name": "balanceOf",
      "outputs": [
        {
          "internalType": "uint256",
          "name": "",
          "type": "uint256"
        }
      ],
      "stateMutability": "view",
      "type": "function"
    },
    {
      "inputs": [
        {
          "internalType": "uint256",
          "name": "tokenId",
          "type": "uint256"
        }
      ],
      "name": "getApproved",
      "outputs": [
        {
          "internalType": "address",
          "name": "",
          "type": "address"
        }
      ],
      "stateMutability": "view",
      "type": "function"
    },
    {
      "inputs": [
        {
          "internalType": "address",
          "name": "owner",
          "type": "address"
        },
        {
          "internalType": "address",
          "name": "operator",
          "type": "address"
        }
      ],
      "name": "isApprovedForAll",
      "outputs": [
        {
          "internalType": "bool",
          "name": "",
          "type": "bool"
        }
      ],
      "stateMutability": "view",
      "type": "function"
    },
    {
      "inputs": [],
      "name": "name",
      "outputs": [
        {
          "internalType": "string",
          "name": "",
          "type": "string"
        }
      ],
      "stateMutability": "view",
      "type": "function"
    },
    {
      "inputs": [
        {
          "internalType": "uint256",
          "name": "tokenId",
          "type": "uint256"
        }
      ],
      "name": "ownerOf",
      "outputs": [
        {
          "internalType": "address",
          "name": "",
          "type": "address"
        }
      ],
      "stateMutability": "view",
      "type": "function"
    },
    {
      "inputs": [
        {
          "internalType": "address",
          "name": "from",
          "type": "address"
        },
        {
          "internalType": "address",
          "name": "to",
          "type": "address"
        },
        {
          "internalType": "uint256",
          "name": "tokenId",
          "type": "uint256"
        }
      ],
      "name": "safeTransferFrom",
      "outputs": [],
      "stateMutability": "nonpayable",
      "type": "function"
    },
    {
      "inputs": [
        {
          "internalType": "address",
          "name": "from",
          "type": "address"
        },
        {
          "internalType": "address",
          "name": "to",
          "type": "address"
        },
        {
          "internalType": "uint256",
          "name": "tokenId",
          "type": "uint256"
        },
        {
          "internalType": "bytes",
          "name": "data",
          "type": "bytes"
        }
      ],
      "name": "safeTransferFrom",
      "outputs": [],
      "stateMutability": "nonpayable",
      "type": "function"
    },
    {
      "inputs": [
        {
          "internalType": "address",
          "name": "operator",
          "type": "address"
        },
        {
          "internalType": "bool",
          "name": "approved",
          "type": "bool"
        }
      ],
      "name": "setApprovalForAll",
      "outputs": [],
      "stateMutability": "nonpayable",
      "type": "function"
    },
    {
      "inputs": [
        {
          "internalType": "bytes4",
          "name": "interfaceId",
          "type": "bytes4"
        }
      ],
      "name": "supportsInterface",
      "outputs": [
        {
          "internalType": "bool",
          "name": "",
          "type": "bool"
        }
      ],
      "stateMutability": "view",
      "type": "function"
    },
    {
      "inputs": [],
      "name": "symbol",
      "outputs": [
        {
          "internalType": "string",
          "name": "",
          "type": "string"
        }
      ],
      "stateMutability": "view",
      "type": "function"
    },
    {
      "inputs": [
        {
          "internalType": "uint256",
          "name": "tokenId",
          "type": "uint256"
        }
      ],
      "name": "tokenURI",
      "outputs": [
        {
          "internalType": "string",
          "name": "",
          "type": "string"
        }
      ],
      "stateMutability": "view",
      "type": "function"
    },
    {
      "inputs": [
        {
          "internalType": "address",
          "name": "from",
          "type": "address"
        },
        {
          "internalType": "address",
          "name": "to",
          "type": "address"
        },
        {
          "internalType": "uint256",
          "name": "tokenId",
          "type": "uint256"
        }
      ],
      "name": "transferFrom",
      "outputs": [],
      "stateMutability": "nonpayable",
      "type": "function"
    }
  ],
  "bytecode": "0x60806040523480156200001157600080fd5b5060405162002f0e38038062002f0e833981810160405281019062000037919062000197565b818181600090805190602001906200005192919062000075565b5080600190805190602001906200006a92919062000075565b50505050506200037a565b82805462000083906200029f565b90600052602060002090601f016020900481019282620000a75760008555620000f3565b82601f10620000c257805160ff1916838001178555620000f3565b82800160010185558215620000f3579182015b82811115620000f2578251825591602001919060010190620000d5565b5b50905062000102919062000106565b5090565b5b808211156200012157600081600090555060010162000107565b5090565b60006200013c620001368462000233565b6200020a565b9050828152602081018484840111156200015557600080fd5b6200016284828562000269565b509392505050565b600082601f8301126200017c57600080fd5b81516200018e84826020860162000125565b91505092915050565b60008060408385031215620001ab57600080fd5b600083015167ffffffffffffffff811115620001c657600080fd5b620001d4858286016200016a565b925050602083015167ffffffffffffffff811115620001f257600080fd5b62000200858286016200016a565b9150509250929050565b60006200021662000229565b9050620002248282620002d5565b919050565b6000604051905090565b600067ffffffffffffffff8211156200025157620002506200033a565b5b6200025c8262000369565b9050602081019050919050565b60005b83811015620002895780820151818401526020810190506200026c565b8381111562000299576000848401525b50505050565b60006002820490506001821680620002b857607f821691505b60208210811415620002cf57620002ce6200030b565b5b50919050565b620002e08262000369565b810181811067ffffffffffffffff821117156200030257620003016200033a565b5b80604052505050565b7f4e487b7100000000000000000000000000000000000000000000000000000000600052602260045260246000fd5b7f4e487b7100000000000000000000000000000000000000000000000000000000600052604160045260246000fd5b6000601f19601f8301169050919050565b612b84806200038a6000396000f3fe608060405234801561001057600080fd5b50600436106100ea5760003560e01c80636c7be44b1161008c578063a22cb46511610066578063a22cb4651461026f578063b88d4fde1461028b578063c87b56dd146102a7578063e985e9c5146102d7576100ea565b80636c7be44b146101f157806370a082311461022157806395d89b4114610251576100ea565b8063095ea7b3116100c8578063095ea7b31461016d57806323b872dd1461018957806342842e0e146101a55780636352211e146101c1576100ea565b806301ffc9a7146100ef57806306fdde031461011f578063081812fc1461013d575b600080fd5b61010960048036038101906101049190611f38565b610307565b60405161011691906122f3565b60405180910390f35b6101276103e9565b604051610134919061230e565b60405180910390f35b61015760048036038101906101529190611fcb565b61047b565b604051610164919061228c565b60405180910390f35b61018760048036038101906101829190611efc565b6104c1565b005b6101a3600480360381019061019e9190611df6565b6105d9565b005b6101bf60048036038101906101ba9190611df6565b610639565b005b6101db60048036038101906101d69190611fcb565b610659565b6040516101e8919061228c565b60405180910390f35b61020b60048036038101906102069190611f8a565b6106e0565b60405161021891906124b0565b60405180910390f35b61023b60048036038101906102369190611d91565b610711565b60405161024891906124b0565b60405180910390f35b6102596107c9565b604051610266919061230e565b60405180910390f35b61028960048036038101906102849190611ec0565b61085b565b005b6102a560048036038101906102a09190611e45565b610871565b005b6102c160048036038101906102bc9190611fcb565b6108d3565b6040516102ce919061230e565b60405180910390f35b6102f160048036038101906102ec9190611dba565b6109e6565b6040516102fe91906122f3565b60405180910390f35b60007f80ac58cd000000000000000000000000000000000000000000000000000000007bffffffffffffffffffffffffffffffffffffffffffffffffffffffff1916827bffffffffffffffffffffffffffffffffffffffffffffffffffffffff191614806103d257507f5b5e139f000000000000000000000000000000000000000000000000000000007bffffffffffffffffffffffffffffffffffffffffffffffffffffffff1916827bffffffffffffffffffffffffffffffffffffffffffffffffffffffff1916145b806103e257506103e182610a7a565b5b9050919050565b6060600080546103f8906126d5565b80601f0160208091040260200160405190810160405280929190818152602001828054610424906126d5565b80156104715780601f1061044657610100808354040283529160200191610471565b820191906000526020600020905b81548152906001019060200180831161045457829003601f168201915b5050505050905090565b600061048682610ae4565b6004600083815260200190815260200160002060009054906101000a900473ffffffffffffffffffffffffffffffffffffffff169050919050565b60006104cc82610659565b90508073ffffffffffffffffffffffffffffffffffffffff168373ffffffffffffffffffffffffffffffffffffffff16141561053d576040517f08c379a000000000000000000000000000000000000000000000000000000000815260040161053490612470565b60405180910390fd5b8073ffffffffffffffffffffffffffffffffffffffff1661055c610b2f565b73ffffffffffffffffffffffffffffffffffffffff16148061058b575061058a81610585610b2f565b6109e6565b5b6105ca576040517f08c379a00000000000000000000000000000000000000000000000000000000081526004016105c190612490565b60405180910390fd5b6105d48383610b37565b505050565b6105ea6105e4610b2f565b82610bf0565b610629576040517f08c379a000000000000000000000000000000000000000000000000000000000815260040161062090612330565b60405180910390fd5b610634838383610c85565b505050565b61065483838360405180602001604052806000815250610871565b505050565b60008061066583610f7f565b9050600073ffffffffffffffffffffffffffffffffffffffff168173ffffffffffffffffffffffffffffffffffffffff1614156106d7576040517f08c379a00000000000000000000000000000000000000000000000000000000081526004016106ce90612450565b60405180910390fd5b80915050919050565b60006106ec6007610fbc565b6106f66007610fd2565b90506107023382610fe0565b61070c8183610ffe565b919050565b60008073ffffffffffffffffffffffffffffffffffffffff168273ffffffffffffffffffffffffffffffffffffffff161415610782576040517f08c379a0000000000000000000000000000000000000000000000000000000008152600401610779906123f0565b60405180910390fd5b600360008373ffffffffffffffffffffffffffffffffffffffff1673ffffffffffffffffffffffffffffffffffffffff168152602001908152602001600020549050919050565b6060600180546107d8906126d5565b80601f0160208091040260200160405190810160405280929190818152602001828054610804906126d5565b80156108515780601f1061082657610100808354040283529160200191610851565b820191906000526020600020905b81548152906001019060200180831161083457829003601f168201915b5050505050905090565b61086d610866610b2f565b8383611072565b5050565b61088261087c610b2f565b83610bf0565b6108c1576040517f08c379a00000000000000000000000000000000000000000000000000000000081526004016108b890612330565b60405180910390fd5b6108cd848484846111df565b50505050565b60606108de82610ae4565b60006006600084815260200190815260200160002080546108fe906126d5565b80601f016020809104026020016040519081016040528092919081815260200182805461092a906126d5565b80156109775780601f1061094c57610100808354040283529160200191610977565b820191906000526020600020905b81548152906001019060200180831161095a57829003601f168201915b50505050509050600061098861123b565b905060008151141561099e5781925050506109e1565b6000825111156109d35780826040516020016109bb929190612268565b604051602081830303815290604052925050506109e1565b6109dc84611252565b925050505b919050565b6000600560008473ffffffffffffffffffffffffffffffffffffffff1673ffffffffffffffffffffffffffffffffffffffff16815260200190815260200160002060008373ffffffffffffffffffffffffffffffffffffffff1673ffffffffffffffffffffffffffffffffffffffff16815260200190815260200160002060009054906101000a900460ff16905092915050565b60007f01ffc9a7000000000000000000000000000000000000000000000000000000007bffffffffffffffffffffffffffffffffffffffffffffffffffffffff1916827bffffffffffffffffffffffffffffffffffffffffffffffffffffffff1916149050919050565b610aed816112ba565b610b2c576040517f08c379a0000000000000000000000000000000000000000000000000000000008152600401610b2390612450565b60405180910390fd5b50565b600033905090565b816004600083815260200190815260200160002060006101000a81548173ffffffffffffffffffffffffffffffffffffffff021916908373ffffffffffffffffffffffffffffffffffffffff160217905550808273ffffffffffffffffffffffffffffffffffffffff16610baa83610659565b73ffffffffffffffffffffffffffffffffffffffff167f8c5be1e5ebec7d5bd14f71427d1e84f3dd0314c0f7b2291e5b200ac8c7c3b92560405160405180910390a45050565b600080610bfc83610659565b90508073ffffffffffffffffffffffffffffffffffffffff168473ffffffffffffffffffffffffffffffffffffffff161480610c3e5750610c3d81856109e6565b5b80610c7c57508373ffffffffffffffffffffffffffffffffffffffff16610c648461047b565b73ffffffffffffffffffffffffffffffffffffffff16145b91505092915050565b8273ffffffffffffffffffffffffffffffffffffffff16610ca582610659565b73ffffffffffffffffffffffffffffffffffffffff1614610cfb576040517f08c379a0000000000000000000000000000000000000000000000000000000008152600401610cf290612370565b60405180910390fd5b600073ffffffffffffffffffffffffffffffffffffffff168273ffffffffffffffffffffffffffffffffffffffff161415610d6b576040517f08c379a0000000000000000000000000000000000000000000000000000000008152600401610d62906123b0565b60405180910390fd5b610d7883838360016112fb565b8273ffffffffffffffffffffffffffffffffffffffff16610d9882610659565b73ffffffffffffffffffffffffffffffffffffffff1614610dee576040517f08c379a0000000000000000000000000000000000000000000000000000000008152600401610de590612370565b60405180910390fd5b6004600082815260200190815260200160002060006101000a81549073ffffffffffffffffffffffffffffffffffffffff02191690556001600360008573ffffffffffffffffffffffffffffffffffffffff1673ffffffffffffffffffffffffffffffffffffffff168152602001908152602001600020600082825403925050819055506001600360008473ffffffffffffffffffffffffffffffffffffffff1673ffffffffffffffffffffffffffffffffffffffff16815260200190815260200160002060008282540192505081905550816002600083815260200190815260200160002060006101000a81548173ffffffffffffffffffffffffffffffffffffffff021916908373ffffffffffffffffffffffffffffffffffffffff160217905550808273ffffffffffffffffffffffffffffffffffffffff168473ffffffffffffffffffffffffffffffffffffffff167fddf252ad1be2c89b69c2b068fc378daa952ba7f163c4a11628f55a4df523b3ef60405160405180910390a4610f7a8383836001611421565b505050565b60006002600083815260200190815260200160002060009054906101000a900473ffffffffffffffffffffffffffffffffffffffff169050919050565b6001816000016000828254019250508190555050565b600081600001549050919050565b610ffa828260405180602001604052806000815250611427565b5050565b611007826112ba565b611046576040517f08c379a000000000000000000000000000000000000000000000000000000000815260040161103d90612410565b60405180910390fd5b8060066000848152602001908152602001600020908051906020019061106d929190611bb5565b505050565b8173ffffffffffffffffffffffffffffffffffffffff168373ffffffffffffffffffffffffffffffffffffffff1614156110e1576040517f08c379a00000000000000000000000000000000000000000000000000000000081526004016110d8906123d0565b60405180910390fd5b80600560008573ffffffffffffffffffffffffffffffffffffffff1673ffffffffffffffffffffffffffffffffffffffff16815260200190815260200160002060008473ffffffffffffffffffffffffffffffffffffffff1673ffffffffffffffffffffffffffffffffffffffff16815260200190815260200160002060006101000a81548160ff0219169083151502179055508173ffffffffffffffffffffffffffffffffffffffff168373ffffffffffffffffffffffffffffffffffffffff167f17307eab39ab6107e8899845ad3d59bd9653f200f220920489ca2b5937696c31836040516111d291906122f3565b60405180910390a3505050565b6111ea848484610c85565b6111f684848484611482565b611235576040517f08c379a000000000000000000000000000000000000000000000000000000000815260040161122c90612350565b60405180910390fd5b50505050565b606060405180602001604052806000815250905090565b606061125d82610ae4565b600061126761123b565b9050600081511161128757604051806020016040528060008152506112b2565b8061129184611619565b6040516020016112a2929190612268565b6040516020818303038152906040525b915050919050565b60008073ffffffffffffffffffffffffffffffffffffffff166112dc83610f7f565b73ffffffffffffffffffffffffffffffffffffffff1614159050919050565b600181111561141b57600073ffffffffffffffffffffffffffffffffffffffff168473ffffffffffffffffffffffffffffffffffffffff161461138f5780600360008673ffffffffffffffffffffffffffffffffffffffff1673ffffffffffffffffffffffffffffffffffffffff168152602001908152602001600020600082825461138791906125eb565b925050819055505b600073ffffffffffffffffffffffffffffffffffffffff168373ffffffffffffffffffffffffffffffffffffffff161461141a5780600360008573ffffffffffffffffffffffffffffffffffffffff1673ffffffffffffffffffffffffffffffffffffffff16815260200190815260200160002060008282546114129190612595565b925050819055505b5b50505050565b50505050565b611431838361173d565b61143e6000848484611482565b61147d576040517f08c379a000000000000000000000000000000000000000000000000000000000815260040161147490612350565b60405180910390fd5b505050565b60006114a38473ffffffffffffffffffffffffffffffffffffffff1661195b565b1561160c578373ffffffffffffffffffffffffffffffffffffffff1663150b7a026114cc610b2f565b8786866040518563ffffffff1660e01b81526004016114ee94939291906122a7565b602060405180830381600087803b15801561150857600080fd5b505af192505050801561153957506040513d601f19601f820116820180604052508101906115369190611f61565b60015b6115bc573d8060008114611569576040519150601f19603f3d011682016040523d82523d6000602084013e61156e565b606091505b506000815114156115b4576040517f08c379a00000000000000000000000000000000000000000000000000000000081526004016115ab90612350565b60405180910390fd5b805181602001fd5b63150b7a0260e01b7bffffffffffffffffffffffffffffffffffffffffffffffffffffffff1916817bffffffffffffffffffffffffffffffffffffffffffffffffffffffff191614915050611611565b600190505b949350505050565b6060600060016116288461197e565b01905060008167ffffffffffffffff81111561166d577f4e487b7100000000000000000000000000000000000000000000000000000000600052604160045260246000fd5b6040519080825280601f01601f19166020018201604052801561169f5781602001600182028036833780820191505090505b509050600082602001820190505b600115611732578080600190039150507f3031323334353637383961626364656600000000000000000000000000000000600a86061a8153600a858161171c577f4e487b7100000000000000000000000000000000000000000000000000000000600052601260045260246000fd5b049450600085141561172d57611732565b6116ad565b819350505050919050565b600073ffffffffffffffffffffffffffffffffffffffff168273ffffffffffffffffffffffffffffffffffffffff1614156117ad576040517f08c379a00000000000000000000000000000000000000000000000000000000081526004016117a490612430565b60405180910390fd5b6117b6816112ba565b156117f6576040517f08c379a00000000000000000000000000000000000000000000000000000000081526004016117ed90612390565b60405180910390fd5b6118046000838360016112fb565b61180d816112ba565b1561184d576040517f08c379a000000000000000000000000000000000000000000000000000000000815260040161184490612390565b60405180910390fd5b6001600360008473ffffffffffffffffffffffffffffffffffffffff1673ffffffffffffffffffffffffffffffffffffffff16815260200190815260200160002060008282540192505081905550816002600083815260200190815260200160002060006101000a81548173ffffffffffffffffffffffffffffffffffffffff021916908373ffffffffffffffffffffffffffffffffffffffff160217905550808273ffffffffffffffffffffffffffffffffffffffff16600073ffffffffffffffffffffffffffffffffffffffff167fddf252ad1be2c89b69c2b068fc378daa952ba7f163c4a11628f55a4df523b3ef60405160405180910390a4611957600083836001611421565b5050565b6000808273ffffffffffffffffffffffffffffffffffffffff163b119050919050565b600080600090507a184f03e93ff9f4daa797ed6e38ed64bf6a1f0100000000000000008310611a02577a184f03e93ff9f4daa797ed6e38ed64bf6a1f01000000000000000083816119f8577f4e487b7100000000000000000000000000000000000000000000000000000000600052601260045260246000fd5b0492506040810190505b6d04ee2d6d415b85acef81000000008310611a65576d04ee2d6d415b85acef81000000008381611a5b577f4e487b7100000000000000000000000000000000000000000000000000000000600052601260045260246000fd5b0492506020810190505b662386f26fc100008310611aba57662386f26fc100008381611ab0577f4e487b7100000000000000000000000000000000000000000000000000000000600052601260045260246000fd5b0492506010810190505b6305f5e1008310611b09576305f5e1008381611aff577f4e487b7100000000000000000000000000000000000000000000000000000000600052601260045260246000fd5b0492506008810190505b6127108310611b54576127108381611b4a577f4e487b7100000000000000000000000000000000000000000000000000000000600052601260045260246000fd5b0492506004810190505b60648310611b9d5760648381611b93577f4e487b7100000000000000000000000000000000000000000000000000000000600052601260045260246000fd5b0492506002810190505b600a8310611bac576001810190505b80915050919050565b828054611bc1906126d5565b90600052602060002090601f016020900481019282611be35760008555611c2a565b82601f10611bfc57805160ff1916838001178555611c2a565b82800160010185558215611c2a579182015b82811115611c29578251825591602001919060010190611c0e565b5b509050611c379190611c3b565b5090565b5b80821115611c54576000816000905550600101611c3c565b5090565b6000611c6b611c66846124f0565b6124cb565b905082815260208101848484011115611c8357600080fd5b611c8e848285612693565b509392505050565b6000611ca9611ca484612521565b6124cb565b905082815260208101848484011115611cc157600080fd5b611ccc848285612693565b509392505050565b600081359050611ce381612af2565b92915050565b600081359050611cf881612b09565b92915050565b600081359050611d0d81612b20565b92915050565b600081519050611d2281612b20565b92915050565b600082601f830112611d3957600080fd5b8135611d49848260208601611c58565b91505092915050565b600082601f830112611d6357600080fd5b8135611d73848260208601611c96565b91505092915050565b600081359050611d8b81612b37565b92915050565b600060208284031215611da357600080fd5b6000611db184828501611cd4565b91505092915050565b60008060408385031215611dcd57600080fd5b6000611ddb85828601611cd4565b9250506020611dec85828601611cd4565b9150509250929050565b600080600060608486031215611e0b57600080fd5b6000611e1986828701611cd4565b9350506020611e2a86828701611cd4565b9250506040611e3b86828701611d7c565b9150509250925092565b60008060008060808587031215611e5b57600080fd5b6000611e6987828801611cd4565b9450506020611e7a87828801611cd4565b9350506040611e8b87828801611d7c565b925050606085013567ffffffffffffffff811115611ea857600080fd5b611eb487828801611d28565b91505092959194509250565b60008060408385031215611ed357600080fd5b6000611ee185828601611cd4565b9250506020611ef285828601611ce9565b9150509250929050565b60008060408385031215611f0f57600080fd5b6000611f1d85828601611cd4565b9250506020611f2e85828601611d7c565b9150509250929050565b600060208284031215611f4a57600080fd5b6000611f5884828501611cfe565b91505092915050565b600060208284031215611f7357600080fd5b6000611f8184828501611d13565b91505092915050565b600060208284031215611f9c57600080fd5b600082013567ffffffffffffffff811115611fb657600080fd5b611fc284828501611d52565b91505092915050565b600060208284031215611fdd57600080fd5b6000611feb84828501611d7c565b91505092915050565b611ffd8161261f565b82525050565b61200c81612631565b82525050565b600061201d82612552565b6120278185612568565b93506120378185602086016126a2565b612040816127c5565b840191505092915050565b60006120568261255d565b6120608185612579565b93506120708185602086016126a2565b612079816127c5565b840191505092915050565b600061208f8261255d565b612099818561258a565b93506120a98185602086016126a2565b80840191505092915050565b60006120c2602d83612579565b91506120cd826127d6565b604082019050919050565b60006120e5603283612579565b91506120f082612825565b604082019050919050565b6000612108602583612579565b915061211382612874565b604082019050919050565b600061212b601c83612579565b9150612136826128c3565b602082019050919050565b600061214e602483612579565b9150612159826128ec565b604082019050919050565b6000612171601983612579565b915061217c8261293b565b602082019050919050565b6000612194602983612579565b915061219f82612964565b604082019050919050565b60006121b7602e83612579565b91506121c2826129b3565b604082019050919050565b60006121da602083612579565b91506121e582612a02565b602082019050919050565b60006121fd601883612579565b915061220882612a2b565b602082019050919050565b6000612220602183612579565b915061222b82612a54565b604082019050919050565b6000612243603d83612579565b915061224e82612aa3565b604082019050919050565b61226281612689565b82525050565b60006122748285612084565b91506122808284612084565b91508190509392505050565b60006020820190506122a16000830184611ff4565b92915050565b60006080820190506122bc6000830187611ff4565b6122c96020830186611ff4565b6122d66040830185612259565b81810360608301526122e88184612012565b905095945050505050565b60006020820190506123086000830184612003565b92915050565b60006020820190508181036000830152612328818461204b565b905092915050565b60006020820190508181036000830152612349816120b5565b9050919050565b60006020820190508181036000830152612369816120d8565b9050919050565b60006020820190508181036000830152612389816120fb565b9050919050565b600060208201905081810360008301526123a98161211e565b9050919050565b600060208201905081810360008301526123c981612141565b9050919050565b600060208201905081810360008301526123e981612164565b9050919050565b6000602082019050818103600083015261240981612187565b9050919050565b60006020820190508181036000830152612429816121aa565b9050919050565b60006020820190508181036000830152612449816121cd565b9050919050565b60006020820190508181036000830152612469816121f0565b9050919050565b6000602082019050818103600083015261248981612213565b9050919050565b600060208201905081810360008301526124a981612236565b9050919050565b60006020820190506124c56000830184612259565b92915050565b60006124d56124e6565b90506124e18282612707565b919050565b6000604051905090565b600067ffffffffffffffff82111561250b5761250a612796565b5b612514826127c5565b9050602081019050919050565b600067ffffffffffffffff82111561253c5761253b612796565b5b612545826127c5565b9050602081019050919050565b600081519050919050565b600081519050919050565b600082825260208201905092915050565b600082825260208201905092915050565b600081905092915050565b60006125a082612689565b91506125ab83612689565b9250827fffffffffffffffffffffffffffffffffffffffffffffffffffffffffffffffff038211156125e0576125df612738565b5b828201905092915050565b60006125f682612689565b915061260183612689565b92508282101561261457612613612738565b5b828203905092915050565b600061262a82612669565b9050919050565b60008115159050919050565b60007fffffffff0000000000000000000000000000000000000000000000000000000082169050919050565b600073ffffffffffffffffffffffffffffffffffffffff82169050919050565b6000819050919050565b82818337600083830152505050565b60005b838110156126c05780820151818401526020810190506126a5565b838111156126cf576000848401525b50505050565b600060028204905060018216806126ed57607f821691505b6020821081141561270157612700612767565b5b50919050565b612710826127c5565b810181811067ffffffffffffffff8211171561272f5761272e612796565b5b80604052505050565b7f4e487b7100000000000000000000000000000000000000000000000000000000600052601160045260246000fd5b7f4e487b7100000000000000000000000000000000000000000000000000000000600052602260045260246000fd5b7f4e487b7100000000000000000000000000000000000000000000000000000000600052604160045260246000fd5b6000601f19601f8301169050919050565b7f4552433732313a2063616c6c6572206973206e6f7420746f6b656e206f776e6560008201527f72206f7220617070726f76656400000000000000000000000000000000000000602082015250565b7f4552433732313a207472616e7366657220746f206e6f6e20455243373231526560008201527f63656976657220696d706c656d656e7465720000000000000000000000000000602082015250565b7f4552433732313a207472616e736665722066726f6d20696e636f72726563742060008201527f6f776e6572000000000000000000000000000000000000000000000000000000602082015250565b7f4552433732313a20746f6b656e20616c7265616479206d696e74656400000000600082015250565b7f4552433732313a207472616e7366657220746f20746865207a65726f2061646460008201527f7265737300000000000000000000000000000000000000000000000000000000602082015250565b7f4552433732313a20617070726f766520746f2063616c6c657200000000000000600082015250565b7f4552433732313a2061646472657373207a65726f206973206e6f74206120766160008201527f6c6964206f776e65720000000000000000000000000000000000000000000000602082015250565b7f45524337323155524953746f726167653a2055524920736574206f66206e6f6e60008201527f6578697374656e7420746f6b656e000000000000000000000000000000000000602082015250565b7f4552433732313a206d696e7420746f20746865207a65726f2061646472657373600082015250565b7f4552433732313a20696e76616c696420746f6b656e2049440000000000000000600082015250565b7f4552433732313a20617070726f76616c20746f2063757272656e74206f776e6560008201527f7200000000000000000000000000000000000000000000000000000000000000602082015250565b7f4552433732313a20617070726f76652063616c6c6572206973206e6f7420746f60008201527f6b656e206f776e6572206f7220617070726f76656420666f7220616c6c000000602082015250565b612afb8161261f565b8114612b0657600080fd5b50565b612b1281612631565b8114612b1d57600080fd5b50565b612b298161263d565b8114612b3457600080fd5b50565b612b4081612689565b8114612b4b57600080fd5b5056fea26469706673582212204feb01a59290f023bd3dc370ffd768efff78aa2df846347b8d3cf261c4475ff964736f6c63430008040033",
  "linkReferences": {},
  "deployedLinkReferences": {}
}